:020000040000FA
:100000000C94D5010C9406020C9406020C94060282
:100010000C9406020C9406020C9406020C94060240
:100020000C9406020C94171A0C94171A0C94171AB5
:100030000C9406020C9406020C9406020C94060220
:100040000C9406020C94411C0C9406020C940602BB
:100050000C9406020C9406020C9406020C94CD1922
:100060000C9406020C94A3190C9479190C940602B2
:100070000C9406020C9406020C9406020C940602E0
:100080000C94131C0C9406020C9406020C940602A9
:100090000C944F190C9425190C9406020C94931A85
:1000A0000C9406020C9406020C94E51B0C940602B8
:1000B0000C9406020C9406020C9406020C94B71BD6
:1000C0000C9406020C9406020C9406020C94FB1885
:1000D0000C94D1180C9406020C94A7180C947D185B
:1000E0000C9406020C947B0A0C94D0040C94020B22
:1000F0000C94D7040C943D100C94560E0C94DD0413
:100100000C94EF040C9430020C941C020C944F07D6
:100110000C94D40E0C9420090C94CA0E0C94D30A9F
:100120000C94E80E0C9412020C942E070C94A51358
:100130000C9426020C9457140C94A70E0C949A035A
:100140000C941B070C946A0C0C9428160C94FD0458
:100150000C94E3130C94790E0C94F9150C9413067B
:100160000C94A1170C94C2040C9422070C94500216
:100170000C9445030C94CC040C94A60A0C94D4045F
:100180000C945F180C9488060C94450F0C942A0765
:100190000C943A020C948B030C947D0A0C943E034D
:1001A0000C9412040C94C00E0C944B140C941E1856
:1001B0000C94D41C0C947C0A0C94650E0C94E104F1
:1001C0000C94BC030C9402050C9445020C94E704B7
:1001D0000C94620D0C941E070C94DE0E0C94510EC0
:1001E0000C9408020C94CE130C942B060C945B1008
:1001F0000C9441160C945F140C9407050C948C0A13
:100200000C94B6130C94970C0C94C8040C9415071A
:100210000C9445170C946F0E0C9470180C94FA13F0
:100220000C942C060C94890E0C949E060C94EB04F2
:100230000C945F040C940A130C94ED0E0C949F0A1A
:100240000C946E140C94AE030C9431070C94F504CA
:100250000C949D0E0C94930E0C9414140C94C317D0
:100260000C945B0E0C9418070C9426070C94810ECA
:100270000C94F9040C94B60E0C9444020C940917D7
:100280000C9403050C948B17000021002400270018
:100290002A002D0030003300010100000401070195
:1002A0000A0100000A0B02090C0D0E0807030401E5
:1002B000000000000000000000000000000000003E
:1002C000000000000000000000000000000012110B
:1002D000100000000000000000000000000000000E
:1002E00000000000000000000000200023002600A5
:1002F00029002C002F00320000010000030106013C
:10030000090100002200250028002B002E003100EA
:10031000340002010000050108010B010505050577
:10032000070508080808020202020A0A080804046D
:10033000040401010101010101010303030303039B
:100340000303040707070C0C0C0C0C0C0C0C02022A
:10035000020206060606060606060B0B0B0B0B0B27
:100360000B0B0102102020080810204010204080B4
:100370000201020108040201010204081020408069
:1003800080402010080402018004020180402010F7
:100390000804020108040201010204081020408040
:1003A0000102040810204080D41C11241FBECFEF8E
:1003B000D1E2DEBFCDBF00E00CBF13E0A0E0B2E0B1
:1003C000E6E0FEE400E00BBF02C007900D92A63607
:1003D000B107D9F72AE0A6E6B3E001C01D92AC3A16
:1003E000B207E1F711E0C5EDD1E000E006C02197CA
:1003F0000109802FFE010E94C525C43DD10780E080
:100400000807A9F70E94B51E0C9401270C94000060
:10041000862FE091EA04F091EB04309711F0BA01D5
:1004200019940895862FE091E804F091E90430973B
:1004300011F0BA0119940895862FE091E604F09125
:10044000E704309711F0BA0119940895862FE091CE
:10045000E404F091E504309711F0BA01199408957D
:10046000862FE091E204F091E304309711F0BA0195
:1004700019940895862FE091E004F091E1043097FB
:1004800011F0BA01199408950895862F642FE09110
:10049000EC04F091ED04309711F0A901199408953E
:1004A000E091EE04F091EF04309709F0199408956B
:1004B000A0917808B0917908ED91FC911197019085
:1004C000F081E02D682FCD0119941F93CF93DF9316
:1004D000182FEB0180913F08909140086817790729
:1004E00060F480913D0890913E08C80FD91F188391
:1004F00080E0DF91CF911F910895E0916C08F09119
:100500006D08309711F481E0F4CF81E080933C08CE
:100510008091580890915908199580913F089091C1
:100520004008C817D90778F7DCCFCF93DF93EC01E9
:10053000FB0130E020E0C901880F991F8C179D074F
:1005400078F44081DB014D93BD011197918197951E
:1005500099279795942B9C932F5F3F4F3296EBCF23
:10056000C901DF91CF910895CF92DF92EF92FF9270
:10057000CF93DF93EC016A017B01E889F98982E07E
:100580008083C11481EED806E104F104A1F060E09B
:1005900079E08DE390E0A70196010E948825215023
:1005A00031094109510956954795379527952115E8
:1005B00080E1380798F0E889F989108260E874E8EA
:1005C0008EE190E0A70196010E9488252150310913
:1005D000410951095695479537952795EC85FD8535
:1005E0003083EE85FF852083188EEC89FD8986E0B7
:1005F0008083EA89FB89808180618083EA89FB8925
:10060000808188608083EA89FB898081806880831B
:10061000EA89FB8980818F7D8083DF91CF91FF9074
:10062000EF90DF90CF900895CF93DF93FC01A081EE
:10063000B181109701F1EC01ED91FC9111970190BE
:10064000F081E02D69EFCD01199588819981DC0158
:10065000ED91FC910190F081E02D62E01995888187
:100660009981DC01ED91FC910190F081E02D65E034
:10067000DF91CF911994DF91CF910895009721F0E8
:10068000805C9F4F0C9414030895AF92BF92CF9259
:10069000DF92EF92FF920F931F93CF93DF936C0142
:1006A0007B018B01040F151FEB015E01AE18BF0823
:1006B000C017D10759F06991D601ED91FC910190D5
:1006C000F081E02DC6011995892B79F7C501DF91DD
:1006D000CF911F910F91FF90EF90DF90CF90BF903F
:1006E000AF900895FC01A089B1898C91A689B78942
:1006F00082FD0FC09C91818D8F5F8F73228D821739
:1007000049F0A18DAE0FBF2FB11D5D969C93818FD7
:1007100008958C910895FC01538D448D252F30E070
:10072000842F90E0821B930B541710F0CF960895FE
:1007300001970895FC01918D828D981761F0A28D2B
:10074000AE0FBF2FB11D5D968C91928D9F5F9F73F1
:10075000928F90E008958FEF9FEF0895FC01918DA7
:10076000828D981731F0828DE80FF11D858D90E014
:1007700008958FEF9FEF0895FC01918D228D892FB1
:1007800090E0805C9F4F821B91098F739927089599
:1007900086E895E00E94BC0321E0892B09F420E063
:1007A000822F089583E296E00E94BC0321E0892B0A
:1007B00009F420E0822F089580EC96E00E94BC03AB
:1007C00021E0892B09F420E0822F08958DE597E040
:1007D0000E94BC0321E0892B09F420E0822F0895B8
:1007E000FC01A48DA80FB92FB11DA35ABF4F2C91A6
:1007F000848D90E001968F739927848FA689B7899D
:100800002C93A089B1898C91837080648C93938D93
:10081000848D981306C00288F389E02D80818F7D36
:1008200080830895EF92FF920F931F93CF93DF93EE
:10083000EC0181E0888F9B8D8C8D98131AC0E8891C
:10084000F989808185FF15C09FB7F894EE89FF89EB
:100850006083E889F98980818370806480839FBF89
:1008600081E090E0DF91CF911F910F91FF90EF9089
:100870000895F62E0B8D10E00F5F1F4F0F73112799
:10088000E02E8C8D8E110CC00FB607FCFACFE889D4
:10089000F989808185FFF5CFCE010E94F003F1CF69
:1008A000EB8DEC0FFD2FF11DE35AFF4FF0829FB748
:1008B000F8940B8FEA89FB8980818062CFCFCF9338
:1008C000DF93EC01888D8823B9F0AA89BB89E88978
:1008D000F9898C9185FD03C0808186FD0DC00FB61E
:1008E00007FCF7CF8C9185FFF2CF808185FFEDCF9C
:1008F000CE010E94F003E9CFDF91CF91089580E00F
:1009000090E0892B29F00E94E60381110E940000EB
:1009100080E090E0892B29F00E94DC0381110E9485
:10092000000080E090E0892B29F00E94D203811121
:100930000E94000080E090E0892B29F00E94C8030B
:1009400081110C94000008958150823108F05AC042
:10095000E82FF0E08827E055FB4F8F4F0C94C5251A
:10096000D004D404C204C804CC040205D704DD04B6
:10097000E104E704EB04EF04F504F9040205FD04C7
:1009800003050705809180008F778093800008958C
:10099000809180008F7DF9CF80918000877FF5CF97
:1009A00084B58F7784BD089584B58F7DFBCF80910A
:1009B000B0008F778093B00008958091B0008F7D54
:1009C000F9CF809190008F77809390000895809167
:1009D00090008F7DF9CF80919000877FF5CF809137
:1009E000A0008F778093A00008958091A0008F7D54
:1009F000F9CF8091A000877FF5CF809120018F777C
:100A0000809320010895809120018F7DF9CF8091FE
:100A10002001877FF5CFCF93DF93282F30E0F901B6
:100A2000EE55FD4F8491F901EE59FC4FD491F90137
:100A3000E45EFC4FC491CC23A1F081110E94A40478
:100A4000EC2FF0E0EE0FFF1FE851FD4FA591B491A0
:100A5000EC91ED2381E090E009F480E0DF91CF910B
:100A6000089580E090E0FACF1F93CF93DF93282F73
:100A700030E0F901EE55FD4F8491F901EE59FC4F3C
:100A8000D491F901E45EFC4FC491CC23A9F0162F58
:100A900081110E94A404EC2FF0E0EE0FFF1FEE5F27
:100AA000FC4FA591B4918FB7F894EC91111108C047
:100AB000D095DE23DC938FBFDF91CF911F910895F6
:100AC000DE2BF8CFCF93DF9390E0FC01EE59FC4F83
:100AD0002491845E9C4FFC0184918823C9F090E0AE
:100AE000880F991FFC01E857FD4FA591B491FC01B7
:100AF000EE5FFC4FC591D49161110DC09FB7F89482
:100B00008C91209582238C938881282328839FBFF2
:100B1000DF91CF910895623051F49FB7F8943C91E2
:100B2000822F809583238C93E8812E2BEFCF8FB774
:100B3000F894EC912E2B2C938FBFEACF863308F0DC
:100B4000865320917B00982F9870277F922B90934B
:100B50007B008770806480937C0080917A00806441
:100B600080937A0080917A0086FDFCCF8091780096
:100B70009091790008953FB7F8948091DC049091AA
:100B8000DD04A091DE04B091DF0426B5A89B05C06A
:100B90002F3F19F00196A11DB11D3FBFBA2FA92FFC
:100BA000982F8827BC01CD01620F711D811D911DF9
:100BB00042E0660F771F881F991F4A95D1F7089565
:100BC0008F929F92AF92BF92CF92DF92EF92FF925D
:100BD0006B017C010E94BB054B015C01C114D10477
:100BE000E104F104B9F00E94BB05681979098A098A
:100BF0009B09683E73408105910580F321E0C21A8C
:100C0000D108E108F10888EE880E83E0981EA11C47
:100C1000B11CE4CFFF90EF90DF90CF90BF90AF90EA
:100C20009F908F9008952091060530910705281711
:100C3000390771F49091DA048091D904981741F042
:100C4000E091DA04F0E0E756FB4F808190E00895F0
:100C50008FEF9FEF08950895EF92FF920F931F93E8
:100C6000CF93DF93DC015C96ED90FC905D97E114EF
:100C7000F10479F481E090E013969C938E9312979F
:100C800090E080E0DF91CF911F910F91FF90EF9066
:100C900008955196ED91FC91529750968C915097F2
:100CA000982F90950FB75E962C915E97122F127029
:100CB00021FD6095F8942081112319F1282B2083C0
:100CC000E7012197F1F728E0462F50E0308160FFDF
:100CD0001AC0382B3083E7012197F1F7BA017595D7
:100CE0006795215089F7112381F0808189238083C2
:100CF0000FBF5C968D919C910197F1F781E090E098
:100D0000C1CF2923DCCF3923E5CF9081892BEFCFC9
:100D100020910605309107052817390761F4809165
:100D2000D9042091DA0490E0805C9F4F821B9109E6
:100D30008F739927089590E080E00895209106052B
:100D40003091070528173907B9F49091DA0480919A
:100D5000D904981789F0E091DA04F0E0E756FB4FE8
:100D600080812091DA0430E02F5F3F4F2F733327CB
:100D70002093DA0490E008958FEF9FEF0895E091BB
:100D80000605F0910705E817F90769F4A389B48906
:100D90009C918589809589238C93109207051092E8
:100DA000060581E0089580E00895CF93DF93EC017C
:100DB0008A8D9B8D892B01F1809106059091070505
:100DC0008C179D07C9F0009711F00E94BF068E8D09
:100DD0008E7F8E8F1092D9041092DA04D09307057B
:100DE000C0930605EB89FC8980819D89892B8083CE
:100DF00081E0DF91CF91089580E0FBCFDC0161506D
:100E00006B3060F5E62FF0E08827E65FF84F8F4FF4
:100E10000C94C525150718071B072E072E072E074C
:100E20002E071E07220726072A0780EC96E0089562
:100E300083E296E0089586E895E0089593968D9173
:100E40009C91089595968D919C91089597968D917A
:100E50009C91089599968D919C91089590E080E0E1
:100E60000895CF9382EF860F8630B8F4C62F8AE0BC
:100E70000E94580282E0C33169F083E0C23151F030
:100E800084E0C13139F085E0C03121F087E0CF3016
:100E900009F486E0CF910C945802CF9108954A301E
:100EA000510559F4E62FF0E0E358F74F80818F3772
:100EB00011F08AE0808381E0089580E008955F92D8
:100EC0006F927F928F929F92AF92BF92CF92DF925A
:100ED000EF92FF920F931F93CF93DF935C01690111
:100EE000DA015C90232B19F4CC24CA94DC2C8A01FF
:100EF0003A01660E771ED0E0C0E0F12CE12C87E0CD
:100F0000882E912CF50180819181D8016C910C2E55
:100F100001C0660F0A94EAF765296F77DC01ED914D
:100F2000FC910190F081E02D1995BFEFEB1AFB0ABF
:100F3000F801608170E0C4018C1B9D0B02C07595A7
:100F400067958A95E2F7562E2196C730D10558F15C
:100F5000CE14DF0441F1D5018D919C91652D6F7701
:100F6000DC01ED91FC910190F081E02D1995BFEF2E
:100F7000EB1AFB0A551C5524551C2797E6CFEC1499
:100F8000FD0408F4BFCFDF91CF911F910F91FF9027
:100F9000EF90DF90CF90BF90AF909F908F907F9019
:100FA0006F905F9008950F5F1F4F6016710639F7BD
:100FB000209749F3EC14FD0430F7F501808191810D
:100FC00061E070E001C0660FCA95EAF761506521E3
:100FD000DC01ED91FC910190F081E02DDF91CF914A
:100FE0001F910F91FF90EF90DF90CF90BF90AF9047
:100FF0009F908F907F906F905F9019941F93CF93E5
:10100000DF931F921F92CDB7DEB7182F7A836983C3
:1010100080913A0890913B080097C9F0DC01ED916E
:10102000FC910190F081E02D1031B8F4611570440D
:10103000A0F4612F606E199522E030E0AE014F5FA1
:101040005F4F62E070E08AE398E00E945F070F90D4
:101050000F90DF91CF911F91089560EF19958091C6
:101060003A0890913B08DC01ED91FC910190F081F0
:10107000E02D6FE6199580913A0890913B08DC01CC
:10108000ED91FC910190F081E02D612F199522E006
:1010900030E0AE014F5F5F4F62E070E08AE398E0BE
:1010A0000E945F0780913A0890913B08DC01ED9126
:1010B000FC910190F081E02D67EF1995C8CFEF9278
:1010C000FF920F931F93CF93DF93C82F80913A081D
:1010D00090913B080097C9F17A018B01DC01ED91F9
:1010E000FC910190F081E02D60EF199580913A0814
:1010F00090913B08DC01ED91FC910190F081E02D95
:101100006C2F1995E7010E0D1F1DC017D10759F05F
:1011100030E020E0AE0161E070E08AE398E00E94F8
:101120005F072196F2CF80913A0890913B08DC014D
:10113000ED91FC910190F081E02D67EFDF91CF916F
:101140001F910F91FF90EF901994DF91CF911F9114
:101150000F91FF90EF900895CF92DF92EF92FF9260
:101160000F931F93CF93DF93FC01E058FF4FE08074
:10117000EE2009F45CC0EC01C05CDF4FA881B981AE
:10118000109709F454C0FC01EF57FF4FC080D18085
:10119000F60111810081ED91FC9111970190F08190
:1011A000E02D60EFCD01199588819981DC01ED91E9
:1011B000FC910190F081E02D69E719958881998172
:1011C000DC01ED91FC910190F081E02D602F1995EB
:1011D00088819981DC01ED91FC910190F081E02DF5
:1011E000612F1995F12C01E010E00F5F1F4FE01601
:1011F000F10659F030E020E0A601400F511F61E0F8
:1012000070E0CE010E945F07F0CF88819981DC01F8
:10121000ED91FC910190F081E02D67EFDF91CF918E
:101220001F910F91FF90EF90DF90CF901994DF9175
:10123000CF911F910F91FF90EF90DF90CF90089585
:10124000009711F00C94AC08089520917404260FB7
:101250003327331F21323105ECF420915C05FC016A
:1012600090E080E0243069F082E00895A091740459
:101270002191AC014E5A5B4FA40FB52FB11D2C9399
:101280000196861798F380917404680F6093740434
:1012900080E0089581E0089510925C0581E08093DC
:1012A0005B051092360561E084E10E94340561E03F
:1012B00085E10E943405E9EBF0E080818E7F808338
:1012C00080818D7F808388E48093B80085E480935B
:1012D000BC000895CF93DF9391E09093510488234D
:1012E000B9F0C091B800D091BA008091BC008A7B5F
:1012F0008093BC0060E084E10E94340560E085E1F9
:101300000E9434050E944C09D093BA00C093B800E3
:10131000DF91CF9108958F929F92AF92BF92CF921B
:10132000DF92EF92FF920F931F93CF93DF93D091B1
:101330008505D13208F0D7C0182FC09184050E94CE
:10134000BB056B017C0180915C0581116BC082E063
:1013500080935C0510935B058FEF80935A05109284
:101360005905D0935805A4E6B5E0E8E3F5E080E040
:10137000D81391C01092370580913705CC0FC82B38
:10138000C093370580913605813009F088C01092EE
:1013900036050E94BB056B017C0180913705809367
:1013A000BB0080915E0590915F05A0916005B091B2
:1013B0006105892B8A2B8B2BA1F00E94BB05009124
:1013C0005E0510915F0520916005309161056C19F3
:1013D0007D098E099F09061717072807390708F4A2
:1013E00042C08091BC0083FDD8CF85EC8093BC00C7
:1013F0000E94BB056B017C0180915C05823009F481
:1014000050C080915A058F3F09F46FC080915A05F2
:10141000803209F46CC080915A05803309F469C0A8
:1014200084E026C080915E0590915F05A0916005E3
:10143000B0916105892B8A2B8B2B09F484CF0E94F4
:10144000BB0580905E0590905F05A0906005B09010
:1014500061056C197D098E099F0986169706A806F5
:10146000B90608F070CF80915D050E946A0985E099
:10147000109263051092850510926205DF91CF915D
:101480001F910F91FF90EF90DF90CF90BF90AF90A2
:101490009F908F9008959D9191938F5F69CF85EE76
:1014A000A5CF80915E0590915F05A0916005B091F8
:1014B0006105892B8A2B8B2B09F49ECF0E94BB05DB
:1014C00000915E0510915F052091600530916105E6
:1014D0006C197D098E099F09061717072807390718
:1014E00008F08ACFC0CF81E0C3CF80E0C1CF82E0D7
:1014F000BFCF83E0BDCF08950895E091500480915F
:101500004F04E81730F4F0E0E15DFB4F808190E09C
:1015100008958FEF9FEF08959091500480914F04AC
:101520002FEF3FEF981748F4E92FF0E0E15DFB4F14
:10153000208130E09F5F90935004C901089580910D
:101540004F0490915004891B990B0895CF92DF921C
:10155000EF92FF920F931F93CF93DF937C01CB0108
:101560008A0120916205222389F0EB016B01C40EF0
:10157000D51ECC15DD0569F06991D701ED91FC917F
:101580000190F081E02DC7011995F3CF642F0E94DF
:101590002509C801DF91CF911F910F91FF90EF9026
:1015A000DF90CF900895CF93DF931F92CDB7DEB732
:1015B0006983209162052223F9F02091850520326C
:1015C00058F021E030E0FC013383228390E080E09A
:1015D0000F90DF91CF91089580916305E82FF0E09F
:1015E000EC59FA4F998190838F5F809363058093C4
:1015F000850581E090E0ECCF61E0CE0101960E948C
:101600002509F7CF90E080E00895DF92EF92FF92F6
:101610000F931F93CF93DF93EC01D62E7A018901AC
:101620008881803308F067C061E08D2D0E946205DB
:101630008881282F30E0F901EE0FFF1FE20FF31F22
:10164000E45AF64F9D2D9F736081607C692B608307
:1016500020E232E02E193F0937FF02C02D5F3F4FD5
:101660003595279535952795298320E639E0201B68
:10167000310B37FF02C02D5F3F4F359527953595CC
:1016800027952A832CE0622F0E94B925829FB00102
:10169000112430E020E0AB01420F531FFA01EE0F9E
:1016A000FF1FE40FF51FE45AF64F908196FD16C018
:1016B0002F5F3F4F2C30310571F7813029F51092A3
:1016C000800082E080938100109285001092840057
:1016D000B19A80916F00826080936F00E8818E2FB5
:1016E00090E0FC01EE0FFF1FE80FF91FE45AF64FE0
:1016F0008081806480838881DF91CF911F910F91D9
:10170000FF90EF90DF900895823061F41092900086
:1017100080939100109295001092940088BB809362
:101720007100DCCF833069F41092A00082E08093D6
:10173000A1001092A5001092A40089BB80937200B2
:10174000CDCF8111CBCF1092200182E08093210177
:1017500010922501109224018ABB80937300BECFA2
:10176000AF92BF92CF92DF92EF92FF920F931F93AF
:10177000CF93DF936B017A01EC01C55DDB4F2881CC
:101780003CE0389F8001399F100D1124A090EC0996
:10179000B12C27FF1FC0FB011182108288818F5F4F
:1017A000888388819801280F311D87FD3A95F601BD
:1017B0002A153B051CF488818C30C4F1808191810D
:1017C000049680349C4908F473C0F60180819181AD
:1017D000049670C088819801280F311D87FD3A95C5
:1017E0002A153B05DCF68881A801480F511D87FDAD
:1017F0005A95FA01EE0FFF1FE40FF51FE45AF64F5A
:10180000808186FFCBCF8881F801E80FF11D87FD2D
:10181000FA95CF01EE0FFF1FE80FF91FE45AF64FBC
:10182000808160E08F730E943405B8CF8081918100
:101830002881A801420F511D27FD5A959A01FA01EE
:10184000EE0FFF1FE20FF31FE45AF64F21813281A2
:10185000820F931FF7019183808388819801280F5D
:10186000311D87FD3A95F901EE0FFF1FE20FF31FBF
:10187000E45AF64F808186FF22C08881080F111D2F
:1018800087FD1A95F801EE0FFF1FE00FF11FE45AD4
:10189000F64F808161E08F73DF91CF911F910F919F
:1018A000FF90EF90DF90CF90BF90AF900C943405F5
:1018B00080E49CE9F701918380838FEF8883DF9137
:1018C000CF911F910F91FF90EF90DF90CF90BF903D
:1018D000AF900895CF938031B0F421E030E0082E2E
:1018E00002C0220F331F0A94E2F740913005509155
:1018F0003105672B51F420953095242335233093FF
:10190000310520933005CF910895242B352B30934A
:1019100031052093300590912A049111F4CFC82FFE
:101920000E949E05BC018C2FCF910C94FE074F9214
:101930005F926F927F928F929F92AF92BF92CF925F
:10194000DF92EF92FF920F931F93CF93DF93893033
:1019500008F0A7C08F5FC82FCC0FCC0FCC0F4C2E38
:10196000C73410F056E4452ED62F38EF532E5C0EB8
:10197000852C912CC401880F991F9C012650384F4B
:101980005901052DD12CC12C10E077247394041536
:10199000C8F58EEF800F8434F8F4F601E80DF91DD8
:1019A000E358F74F90819230B8F4872D8D23662449
:1019B0006394811101C0612C7601EE0CFF1C913003
:1019C00089F4172939ECE30EF11CF501EE0DFF1D2A
:1019D000862D90E091838083770C0F5F8FEFC81A7C
:1019E000D80AD5CF882371F3F701E753FF4FEA0DEB
:1019F000FB1D80819181019729F362E0802F0E9475
:101A00006205E0CF10FF05C06D2F6170852D0E942B
:101A1000340511FF06C06D2F627089EF8C0F0E9494
:101A2000340512FF06C06D2F64708AEF8C0F0E9480
:101A3000340513FF06C06D2F68708BEF8C0F0E946A
:101A4000340514FF06C06D2F60718CEF8C0F0E945F
:101A5000340515FF06C06D2F60728DEF8C0F0E944C
:101A6000340516FF06C06D2F60748EEF8C0F0E9438
:101A7000340517FF16C06D2F60788FEF8C0FDF9144
:101A8000CF911F910F91FF90EF90DF90CF90BF907B
:101A9000AF909F908F907F906F905F904F900C943D
:101AA0003405DF91CF911F910F91FF90EF90DF9060
:101AB000CF90BF90AF909F908F907F906F905F90EE
:101AC0004F9008958F929F92AF92BF92CF92DF92E4
:101AD000EF92FF920F931F93CF93DF93EB01863426
:101AE00008F098C0082F10E0F801E358F74F9081F4
:101AF000933009F49CC0943009F08CC08250843437
:101B000008F081C0F801E652FC4FC080D12C76016C
:101B1000EE0CFF1C4B01603282E078070CF03EC0F7
:101B2000F701EC0DFD1DE351F64F8181A8E88A2EE7
:101B3000912C881A910887FD9394880C991C880C25
:101B4000991C092C000CAA08BB08828128E532E008
:101B5000281B310987FD3395220F331F220F331FB6
:101B6000032E000C440B550B281939094A095B094F
:101B7000DB01653B710514F0A4EBB0E0B7FF02C0D8
:101B8000B0E0A0E00E94802524EB30E040E050E08F
:101B90000E945625820E931EA41EB51EF701EC0D61
:101BA000FD1DE351F64F2081203368F5318188E82F
:101BB00090E0831B910937FD9395880F991F880F3B
:101BC000991F881699067CF0328188E592E0831B84
:101BD000910937FD9395880F991F880F991F8816D3
:101BE00099060CF4C4010297880F991F4FB7F89417
:101BF00030E0F901EE0FFF1FE20FF31FE45AF64F3A
:101C0000928381834FBF000F111FF801ED53F74FEF
:101C1000D183C083DF91CF911F910F91FF90EF90FF
:101C2000DF90CF90BF90AF909F908F900895F82E47
:101C30008EEF800F8C3020F084ED800F833018F70A
:101C400061E08F2D0E946205209729F460E08F2DBE
:101C50000E943405D8CFCF3FD10511F461E0F7CF12
:101C6000F801EE55FD4FE491E150E23108F0B0C0CB
:101C7000F0E08827E15CF14F8F4F0C94C525510EA1
:101C8000560E5B0E650E6F0EE80E790E810E890EF4
:101C9000930E9D0EA70EB60EC00EE80ECA0ED40E01
:101CA000DE0E84B5806884BDC7BDADCF84B58062CB
:101CB00084BDC8BDA8CF80918000806880938000DB
:101CC000D0938900C09388009ECF8091800080626D
:101CD00080938000D0938B00C0938A0094CF809132
:101CE0008000886080938000D0938D00C0938C002A
:101CF0008ACF8091B00080688093B000C093B30019
:101D000082CF8091B00080628093B000C093B40015
:101D10007ACF80919000806880939000D093990052
:101D2000C093980070CF8091900080628093900063
:101D3000D0939B00C0939A0066CF809190008860FA
:101D400080939000D0939D00C0939C005CCF8091C5
:101D5000A00080688093A0008091A0008F7B80937A
:101D6000A000D093A900C093A8004DCF8091A000FF
:101D700080628093A000D093AB00C093AA0043CFB1
:101D80008091A00088608093A000D093AD00C093A4
:101D9000AC0039CF80912001806880932001D093DE
:101DA0002901C09328012FCF809120018062809368
:101DB0002001D0932B01C0932A0125CF80912001CF
:101DC000886080932001D0932D01C0932C011BCFFC
:101DD000C038D1050CF042CF39CF9EEF980F943424
:101DE00080F4E82FF0E0DF01A358B74F9C919130C9
:101DF00041F4EE0FFF1FED53F74F608371830C9496
:101E000034050895FF920F931F93CF93DF931F9292
:101E10001F92CDB7DEB7082F10E0F801E051FB4F5D
:101E20009081F62EF922005E1B4F411104C0F8018B
:101E300090819F1511F12F2D30E03A832983A091D5
:101E40003A08B0913B081097B1F0682F6F70606945
:101E5000ED91FC9111970190F081E02DCD01199544
:101E600022E030E0AE014F5F5F4F62E070E08AE356
:101E700098E00E945F07F801F0820F900F90DF91C9
:101E8000CF911F910F91FF9008950F931F93CF93C0
:101E9000DF93893008F071C0282F30E0F901E75056
:101EA000FB4F6083672B09F468C0082F20513B4F1C
:101EB000F9011081D82FDD0FDD0FDD0F8EEF8D0FB3
:101EC000843450F4C12FC17010FF07C08D2F0E94C1
:101ED0000B05C1E0892B09F4C0E08FEF8D0F84342E
:101EE00048F411FF07C081E08D0F0E940B05892B7C
:101EF00009F0C26012FF07C082E08D0F0E940B053F
:101F0000892B09F0C46013FF07C083E08D0F0E9486
:101F10000B05892B09F0C86014FF07C084E08D0F02
:101F20000E940B05892B09F0C06115FF07C085E0F1
:101F30008D0F0E940B05892B09F0C062D034A1F0EF
:101F400016FF07C086E08D0F0E940B05892B09F054
:101F5000C064DF3349F017FF07C087E08D0F0E9490
:101F60000B05892B09F0C06841E06C2F802FDF91B1
:101F7000CF911F910F910C94020FDF91CF911F9180
:101F80000F910895A82FB0E0A652BC4F9C91292F25
:101F900030E0F901EE0FFF1FE20FF31FE351F64FA0
:101FA000E0812E2F30E0F901EE0FFF1FE20FF31F4B
:101FB000E45AF64F80818F7B80838091D8039813F9
:101FC00008C0992319F091509093D8038FEF8C9308
:101FD00008958823D9F3E091D903EF5FE093D90303
:101FE000F0E0EB59FC4F9083F1CFFC010190002011
:101FF000E9F73197BF01681B790BAC0181E70C94BD
:102000005F08CF93DF93DB019091D803903378F58D
:102010003091D903682F70E0FB01E652FC4F332367
:10202000E1F0C32FD0E0CB59DC4F88818083315061
:102030003093D903808123E0829FC0011124835112
:10204000964F1A161B0674F4141615065CF49A01C2
:10205000AD01DF91CF910C94050B90839F5F90931E
:10206000D803E8CF20E639E040E252E0F2CF81E544
:1020700092E0DF91CF910C94F50F1F93CF93DF93F4
:10208000EC0118E0612FCE010E94FE06009711F0CE
:102090000E9469261F5F1C30A9F78FEF8AA3FE01FB
:1020A0003A96A29611921192CE17DF07D9F7DF91D7
:1020B000CF911F9108958F929F92AF92BF92DF921E
:1020C000EF92FF920F931F93CF93DF93EC01D9010F
:1020D000603609F0BCC08C91182F1F701C3008F0BE
:1020E000B6C0807F803309F4E5C17901042F8133C4
:1020F00038F48031A1F1803209F4BEC181E0A8C07A
:10210000803609F435C2803709F441C28035B1F711
:10211000612FCE010E94FE06EC01009779F3183082
:1021200008F020C2E881F9810680F781E02D199539
:10213000EA89FB8980818F7E8083EA89FB8980819F
:10214000877F8083EA89FB8980818F778083EA8912
:10215000FB8980818F7D80838A8D898FCFCFD90144
:1021600012968C901297912CB12CA12C87E0880CA0
:10217000991CAA1CBB1C8A95D1F713968C9190E0F0
:10218000B0E0A0E02EE0880F991FAA1FBB1F2A9580
:10219000D1F788299929AA29BB29F70121814C0166
:1021A0005D01822A183098F5612FCE010E94FE064B
:1021B000EC01892B09F4A2CF1150133010F5212F17
:1021C00030E0F901E45FFD4F8081275F3D4FD90189
:1021D000EC918823B1F0EE23A1F0A82FB0E0A35832
:1021E000B74F9C919F3711F09AE09C93F0E0E35831
:1021F000F74F90819F3711F09AE0908360E00E9442
:102200006205B501A401CE010E94B40277CF45302A
:10221000D0F00481D5801A3009F4E6C01B3009F4EF
:10222000F4C0193009F58DA19EA1892B61F58FE1CC
:1022300090E00E94CD257C014D2D602F0E946F1CE7
:10224000FEA2EDA220C085E692E00E94F50F80E09C
:10225000DF91CF911F910F91FF90EF90DF90BF9092
:10226000AF909F908F9008958BA19CA1892B59F4DA
:102270008FE190E00E94CD257C014D2D602F0E94C2
:102280006F1CFCA2EBA2612FCE010E94FE06EC01A6
:10229000892B09F433CFE02FF0E0E358F74F80812A
:1022A0008F3711F08AE08083ED2DF0E0E358F74F8F
:1022B00080818F3711F08AE080831B8E1A8E198EF1
:1022C000188E1F8A1E8A60E079E08DE390E0A501F8
:1022D00094010E945625B901C901039724303105A4
:1022E00010F481E090E09D8F8C8F8C8596EF980F95
:1022F000943048F0EEECE80FE43028F0E2ECE80F20
:10230000E83008F06DC0F901F695E795E431F10584
:1023100008F48CC07397FF8BEE8B6630710508F460
:1023200088C0B90165507109798F688FB901660F4E
:10233000771F260F371F36952795369527952D3011
:10234000310508F479C02C5031093B8F2A8F943025
:1023500050F02EEC280F243030F022EC280FF0E063
:10236000E0E0283010F4E8E6F0E02081943028F036
:1023700032EC380F383008F462C031E0232B94304F
:1023800048F09EEC980F943028F08E53F0E0E0E097
:10239000883010F4E8E6F0E020832C8536EF320F29
:1023A000343008F44EC08EEC820F843008F449C0FB
:1023B00082EC820F883008F047C08DE690E09C8B5D
:1023C0008B8B343008F043C02650330B81E001C0C2
:1023D000880F2A95EAF78D8B8C8D9D8D0197F1F7EB
:1023E000CE010E94D5068ACE8FA198A5892B09F02F
:1023F0004ACF8FE190E00E94CD257C014D2D602FCA
:102400000E946F1CF8A6EFA23ECF89A59AA5892B42
:1024100009F039CF8FE190E00E94CD257C014D2D50
:10242000602F0E946F1CFAA6E9A62DCFE1E0F0E034
:1024300072CF61E070E078CF21E030E086CF34E009
:102440009DCF8BE690E0BBCF90E080E0B8CF88E0F6
:10245000223309F4C0CF84E0233309F4BCCF82E0F7
:10246000243309F4B8CF82EC820F883018F42E534D
:10247000330BACCF81E0AFCF612FCE010E94FE06BF
:102480005C01892B09F43ACEE70111E0101708F03E
:1024900035CE6A816795662767958981680FD50172
:1024A000ED91FC910190F081E02DC50119951E5F21
:1024B0002296ECCF11968C911197811126C03AA1EA
:1024C00037300CF01BCE812F90E00596880F991FB6
:1024D000FE01E80FF91F4330A8F013968C91139773
:1024E00020E8829FC001112412962C91822B9183A7
:1024F000808381E0830F8AA3C80FD11D87FDDA9501
:102500001A83FCCD11821082F4CF813009F0F6CD10
:102510009AA119161CF08FEF8AA3F0CD80E0492F05
:10252000092E000C550B282F30E04217530774F486
:1025300080E0E82FF0E04E175F078CF0883020F441
:10254000EC0FFD1F238122838F5FF3CF2C0F3D1FE4
:10255000D90112962C91121761F38F5FE4CF91503D
:102560009AA3CCCD0E94BF06CE010E946926C6CD9B
:10257000612FCE010E94FE06009709F4BFCDDC0159
:10258000ED91FC910680F781E02D1995B7CD1830BB
:1025900008F4B4CD612FCE010E94FE06009709F029
:1025A00020CFACCD85ED8093BC0080915E059091ED
:1025B0005F05A0916005B09161050796A11DB11D51
:1025C00023E0B695A795979587952A95D1F7209101
:1025D000BC0024FD03C010925C05089540915E0587
:1025E00050915F056091600570916105452B462B08
:1025F000472B69F30097A105B10541F02AE22A951E
:10260000F1F700C00197A109B109E1CF80915D0503
:102610000C946A098F929F92BF92CF92DF92EF92B1
:10262000FF920F931F93CF93DF93C82ED12CE60117
:10263000C650D84FFE01ED57FF4F90819F3709F4E8
:10264000A1C0963061F490912904992341F066303D
:10265000710529F0109229049FEF909300027B01ED
:10266000182F0EEF080F043408F564307105F1F0EF
:10267000F601E652FC4F80818033C0F490E0FC010B
:10268000EE0FFF1FE80FF91FE351F64FE0818E2F89
:1026900090E0FC01EE0FFF1FE80FF91FE45AF64F20
:1026A000808186FF03C0812F0E94C20F5AECB52E95
:1026B000B10E8FE08B1558F061E070E032E0E31668
:1026C000F10411F070E060E08B2D0E946A0C04347C
:1026D000C8F4E12FE695E695E695F0E0E051FB4F72
:1026E0002081312F377081E090E001C0880F3A954A
:1026F000EAF7E114F10421F03BE0E316F10411F5EF
:10270000822B80834601880C991CF401ED53F74F0E
:10271000118210828CE0E816F10408F0D0C0F701B5
:102720008827EA56FC4E8F4F0C94C525B613E31349
:10273000A513FA1314145F144B145F145F145F1481
:102740005714CE1380958223DCCF3FE03B15D0F0A9
:10275000043420F460E0812F0E946205CD57DF4FE2
:1027600088818F3779F082E088830CC0043450F47C
:1027700060E0812F0E946205CD57DF4F88818F373F
:1027800009F01882DF91CF911F910F91FF90EF9088
:10279000DF90CF90BF909F908F900895043490F772
:1027A00062E0812F0E946205CD57DF4F88818F370D
:1027B00011F08BE08883F401ED53F74F81E090E056
:1027C00091838083DFCF0434E8F6FE01ED57FF4F9D
:1027D0008081833021F460E0812F0E94340561E024
:1027E000812F0E946205CD57DF4F88818F3751F2CC
:1027F00081E0BACF0C3020F084ED810F833010F6E9
:1028000061E0812F0E94620561E0812F0E946205D4
:1028100060E0812F0E943405CD57DF4F88818F37CC
:1028200009F4B0CF83E0A0CF043408F0ABCFCD578C
:10283000DF4F88818F3711F084E08883F601E652FC
:10284000FC4F80818F3FA9F090E0FC01EE0FFF1F4D
:10285000E80FF91FE351F64FE0818E2F90E0FC0165
:10286000EE0FFF1FE80FF91FE45AF64F808186FD37
:1028700089CF4FEF5FEF6FEF7FEF812FDF91CF9128
:102880001F910F91FF90EF90DF90CF90BF909F909E
:102890008F900C9401101451123008F073CFCD5763
:1028A000DF4F88818F3709F46DCF86E05DCFCD573C
:1028B000DF4F88818F3709F465CF8AE055CF83E8F1
:1028C00092E0DF91CF911F910F91FF90EF90DF90F9
:1028D000CF90BF909F908F900C94F50F0F931F9304
:1028E000CF93DF9381E080932A048DE79AE00E94E2
:1028F0003D1080912904882329F0109229048FEF3C
:1029000080930002E9EFF4E0C0EFD4E0A0E2B4E08D
:10291000119219921D9285E0E230F807C9F70AED8D
:1029200013E0C0E0DFEF8AEC8C0F62E070E08031F2
:1029300030F08EEF8C0F843428F461E070E08C2F3F
:102940000E940A13F801D1938F01CF5FC63459F763
:1029500010923105109230051092D9031092D803CD
:1029600010922A04DF91CF911F910F9108954F92F9
:102970005F926F927F928F929F92AF92BF92FF92DF
:102980000F931F93CF93DF93F82E8B01D42FC22F79
:102990006F3F760709F490C081E080936205F09262
:1029A0008405109263051092850580E599E00E94E8
:1029B000D30A8C2F0E948B098091D6039091D70364
:1029C0008230910538F0880F991F880F991F05975D
:1029D0000197F1F70E94BB054B015C0180915C05FA
:1029E00081116CC0CD2FD13208F0C0E281E080931C
:1029F0005C0580935B059FEF90935A0510925905F3
:102A00009C0F9093580580933705909137058F2D33
:102A1000880F892B8093370580913605813009F026
:102A2000A1C0109236050E94BB054B015C0180914C
:102A300037058093BB0080915E0590915F05A09162
:102A40006005B0916105892B8A2B8B2BA1F00E9428
:102A5000BB0540905E0550905F05609060057090EA
:102A60006105681979098A099B094616570668069F
:102A7000790608F444C08091BC0083FDD8CF85EC72
:102A80008093BC000E94BB054B015C0180915C05FA
:102A9000813009F469C0809159058C1710F4C091F8
:102AA0005905E8E3F5E0AFE2B4E080E08C1761F1AE
:102AB00091919D938F5FFACF00E08CCF80915E055E
:102AC00090915F05A0916005B0916105892B8A2BDB
:102AD0008B2B09F483CF0E94BB0540905E0550907C
:102AE0005F056090600570906105681979098A0931
:102AF0009B09461657066806790608F06FCF809145
:102B00005D050E946A09C0E010925004C0934F0412
:102B10002D2F30E08C2F90E0281739070CF046C09D
:102B200084E992E00E94F50FF092960300939703D8
:102B300006E913E0AD2EB12CC801865993408A15E1
:102B40009B050CF041C00F5F1F4F90914F04809187
:102B500050049817C9F180E599E00E948C0AF801A9
:102B60008183EACF85EE8CCF80915E0590915F05E1
:102B7000A0916005B0916105892B8A2B8B2B09F4FC
:102B800085CF0E94BB0540905E0550905F05609028
:102B9000600570906105681979098A099B094616D4
:102BA00057066806790608F071CFA9CF82179307F8
:102BB0000CF0BACF81EB92E00E94F50FD0914F0458
:102BC00080915004D81BB0CFDE5F6D2F70E046E9D6
:102BD00053E087E7DF91CF911F910F91FF90BF9056
:102BE000AF909F908F907F906F905F904F900C94DC
:102BF0005F08EF92FF920F931F93CF93DF9380565E
:102C00008B3108F03EC0EA01162FE82FF0E088274C
:102C1000E35FF94E8F4F0C94C5257018411641168D
:102C20004116411641164116411641165F184116CC
:102C3000C31741161E184116A11745174116411614
:102C400041164116411628164116091741168B17D1
:102C5000998195FF0AC08DEC92E0DF91CF911F9191
:102C60000F91FF90EF900C94F50F888131E096FB67
:102C7000222720F9232798719830D1F148F499231D
:102C8000A9F0DF91CF911F910F91FF90EF900895E0
:102C9000903109F44CC09831A1F72091000212162E
:102CA0000CF472C08FEF80930002EBCF309362057B
:102CB00080938405109263051092850502E0011748
:102CC00078F4FE01E00FF11D618167956627679535
:102CD0008081680F80E599E00E94D30A0E5FEFCFF4
:102CE00081E00E948B0983E191E00197F1F7C9CF60
:102CF0009A814B816630A1F430E8439FB0011124E2
:102D0000690F711D4D814795442747959C81490F57
:102D1000DF91CF911F910F91FF90EF900C94B7141A
:102D2000479544274795490F6FEF7FEFF1CFE0912B
:102D30000002E7301CF08DEE92E08FCF3A819B814C
:102D40006630D9F460E8969FA0011124430F511D0D
:102D50009D819795992797953C81930FEF5FE0931D
:102D6000000235E0E302F0011124E85FFA4F8083AE
:102D7000528341839383248384CF97959927979592
:102D8000930F4FEF5FEFEACF90E0622F022E000C1F
:102D9000770B35E0492F50E06417750764F0349FD6
:102DA000F001359FF00D1124E85FFA4F408148177C
:102DB00019F09F5FEFCF90E085E0492F50E0641756
:102DC00075071CF19830F8F4FA0131968E9FD00106
:102DD0008F9FB00D1124A85FBA4F3C91849FF001E2
:102DE000859FF00D1124E85FFA4F308311964D91C5
:102DF0005C9112975283418313963C9113973383CE
:102E000014963C9134839F5FD8CF215020930002C9
:102E100038CF623078F0898160E8869F9001112474
:102E20008881820F932F911D009721F09093D703F3
:102E30008093D60380912904811123CFC0E08CEECA
:102E40008C0F823028F466E070E08C2F0E940A1309
:102E5000CF5FC634A1F781E080932904109250041B
:102E600010924F0410926305109285050E944C0940
:102E70008BE79AE090937304809372048CE79AE056
:102E80009093770480937604FCCE653008F4F9CEF5
:102E900018818EEF810F843408F0F3CE0981EA8027
:102EA000FB80CC81E12FF0E0E652FC4F8081803343
:102EB000C0F490E0FC01EE0FFF1FE80FF91FE35193
:102EC000F64FE0818E2F90E0FC01EE0FFF1FE80F20
:102ED000F91FE45AF64F808186FF03C0812F0E94BC
:102EE000C20F80E8C89FA00111244F0D511D90E82A
:102EF000E99EB0011124600F711D812F0E94011005
:102F000064E070E0812FDF91CF911F910F91FF90CE
:102F1000EF900C940A13623008F4B3CE8981E0E894
:102F20008E9F900111248881820F932F911D00970D
:102F300029F09093020280930102A3CE81E090E0F9
:102F4000F8CF623008F49DCE698170E0123091F0C4
:102F50008A81F0E88F9FC0011124682B792B1330F0
:102F600049F08B8190E090E4899F902D882711246F
:102F7000682B792B8881DF91CF911F910F91FF9062
:102F8000EF900C94620D80EF0E9458028CE60E9434
:102F90005802CEEFD2E0DC0FC43490F480E00E94FF
:102FA000580281E00E9458028BE00E94580281E0A2
:102FB0000E94580281E00E94580281E00E9458025B
:102FC0008CEC8C0F803188F582E00E9458028AE0F8
:102FD0000E94580286ED8C0F833048F1C43430F4DF
:102FE00084E00E9458028EE00E9458028EEE8C0F00
:102FF000823030F486E00E94580281E00E9458023C
:103000006D2F8DE79AE00E9431078FE70E945802EA
:10301000CF5FC43409F0BECF87EFDF91CF911F910E
:103020000F91FF90EF900C945802CC3098F683E00B
:103030000E94580288E00E945802D0CF662309F40B
:1030400020CEC88180EF0E9458028EE60E9458026E
:103050008C2F0E945802C634F8F6D0E0FE01E358E7
:10306000F74F80810E945802CC0FDD1F8E010D5357
:10307000174FF80180818F770E945802F8018081F4
:1030800091819C012078232B39F0880F892F881F8C
:10309000990B8F770E945802CD53D74F8881998121
:1030A0009C012227307C232B09F4B6CF990F880B83
:1030B000990F982F881F8F770E945802ADCF80EF0D
:1030C0000E9458028AE60E945802CAEC8FE7C0317B
:1030D00008F48C2F0E945802CF5FC031B9F79CCF03
:1030E0009A01462F60E68DE79AE0DF91CF911F911C
:1030F0000F91FF90EF900C945B101F920F920FB600
:103100000F9211240BB60F922F933F934F935F931F
:103110006F937F938F939F93AF93BF93EF93FF939F
:1031200086E895E00E94F003FF91EF91BF91AF9187
:103130009F918F917F916F915F914F913F912F91CF
:103140000F900BBE0F900FBE0F901F9018951F92FF
:103150000F920FB60F9211240BB60F922F933F933D
:103160004F935F936F937F938F939F93AF93BF938F
:10317000EF93FF9386E895E00E947203FF91EF9131
:10318000BF91AF919F918F917F916F915F914F917F
:103190003F912F910F900BBE0F900FBE0F901F907D
:1031A00018951F920F920FB60F9211240BB60F9223
:1031B0002F933F934F935F936F937F938F939F933F
:1031C000AF93BF93EF93FF9383E296E00E94F003E7
:1031D000FF91EF91BF91AF919F918F917F916F91EF
:1031E0005F914F913F912F910F900BBE0F900FBEAB
:1031F0000F901F9018951F920F920FB60F921124E7
:103200000BB60F922F933F934F935F936F937F93E0
:103210008F939F93AF93BF93EF93FF9383E296E0D7
:103220000E947203FF91EF91BF91AF919F918F9197
:103230007F916F915F914F913F912F910F900BBEB6
:103240000F900FBE0F901F9018951F920F920FB600
:103250000F9211240BB60F922F933F934F935F93CE
:103260006F937F938F939F93AF93BF93EF93FF934E
:1032700080EC96E00E94F003FF91EF91BF91AF9137
:103280009F918F917F916F915F914F913F912F917E
:103290000F900BBE0F900FBE0F901F9018951F92AE
:1032A0000F920FB60F9211240BB60F922F933F93EC
:1032B0004F935F936F937F938F939F93AF93BF933E
:1032C000EF93FF9380EC96E00E947203FF91EF91E1
:1032D000BF91AF919F918F917F916F915F914F912E
:1032E0003F912F910F900BBE0F900FBE0F901F902C
:1032F00018951F920F920FB60F9211240BB60F92D2
:103300002F933F934F935F936F937F938F939F93ED
:10331000AF93BF93EF93FF938DE597E00E94F00387
:10332000FF91EF91BF91AF919F918F917F916F919D
:103330005F914F913F912F910F900BBE0F900FBE59
:103340000F901F9018951F920F920FB60F92112495
:103350000BB60F922F933F934F935F936F937F938F
:103360008F939F93AF93BF93EF93FF938DE597E078
:103370000E947203FF91EF91BF91AF919F918F9146
:103380007F916F915F914F913F912F910F900BBE65
:103390000F900FBE0F901F9018951F920F920FB6AF
:1033A0000F9211242F933F938F939F93AF93BF93CB
:1033B0008091020590910305A0910405B091050547
:1033C0003091DB0423E0230F2D3758F50196A11D22
:1033D000B11D2093DB048093020590930305A09315
:1033E0000405B09305058091DC049091DD04A09163
:1033F000DE04B091DF040196A11DB11D8093DC04B1
:103400009093DD04A093DE04B093DF04BF91AF91ED
:103410009F918F913F912F910F900FBE0F901F9012
:10342000189526E8230F0296A11DB11DD2CF1F9239
:103430000F920FB60F9211240BB60F922F933F935A
:103440004F935F936F937F938F939F93AF93BF93AC
:10345000EF93FF93E0910605F0910705309749F04F
:10346000A685B7858585968D91FF16C09C91892389
:10347000B1F4FF91EF91BF91AF919F918F917F91A7
:103480006F915F914F913F912F910F900BBE0F90D5
:103490000FBE0F901F9018959C91892351F7A38917
:1034A000B4899C918589809589238C938689978995
:1034B0000197F1F7608D718DA685B785558538E048
:1034C00020E0CB010197F1F7822F90E09595879549
:1034D000282F4C91452309F02068315091F7868DB3
:1034E00081FD20958091D90490E001968F739927F2
:1034F0003091DA04381799F0A091D904B0E0A756BA
:10350000BB4F2C938093D904828D938D0197F1F753
:10351000A389B4898C919589892B8C93AACF868DA8
:103520008160868FF1CF1F920F920FB60F921124F8
:103530000BB60F922F933F934F935F936F937F93AD
:103540008F939F93AF93BF93EF93FF938091B900B5
:10355000887F803609F44DC008F040C0883209F4F5
:10356000A9C028F5803109F49DC0C8F4882309F466
:10357000FBC0883009F496C0FF91EF91BF91AF91E5
:103580009F918F917F916F915F914F913F912F917B
:103590000F900BBE0F900FBE0F901F9018958831A3
:1035A00009F488C0803241F780935A0514C08034F2
:1035B00009F49DC040F48033B9F38833E9F6809371
:1035C0005A0585ECB0C0803509F485C0883509F40A
:1035D00096C0883489F60E94D212CECF883909F479
:1035E0008CC038F5883729F050F4883611F08037D0
:1035F00019F683E080935C051092980457C08838D0
:1036000009F47BC0803919F0803809F0B5CF80917A
:103610009804803208F071C0E091980481E08E0F28
:10362000809398048091BB00F0E0E858FB4F8083C2
:103630003DC0803B39F0E0F4803A09F479C0883A23
:1036400009F09ACF84E080935C0510927504109283
:103650007404E0917204F0917304199580917404DC
:1036600081110FC081E0809374041092520409C04C
:10367000803C09F4A6CF883C09F4A3CF883B09F02D
:103680007BCFE091750481E08E0F80937504F0E0AC
:10369000EE5AFB4F80818093BB009091750480911E
:1036A000740429C0809137058093BB0085EC80931A
:1036B000BC0062CF9091590580915805981758F534
:1036C000E091590581E08E0F80935905F0E0E85CA8
:1036D000FA4F8081E9CFE091590581E08E0F809308
:1036E00059058091BB00F0E0E85CFA4F808390912F
:1036F0005905809158059817C8F285E8D8CFE09110
:10370000590581E08E0F809359058091BB00F0E050
:10371000E85CFA4F808380915B0581115CCF81E08A
:103720008093360584EA8093BC0010925C0524CF18
:1037300085EC8093BC0010925C05809198048032E7
:1037400030F4E0919804F0E0E858FB4F108260916B
:10375000980470E0E0917604F091770488E794E0B3
:1037600019951092980408CF10925A0534CF1F92E1
:103770000F920FB60F9211240BB60F922F933F9317
:103780004F935F936F937F938F939F93AF93BF9369
:10379000EF93FF9348E251E064E271E090E080E053
:1037A0000E94B00BFF91EF91BF91AF919F918F91CC
:1037B0007F916F915F914F913F912F910F900BBE31
:1037C0000F900FBE0F901F9018951F920F920FB67B
:1037D0000F9211240BB60F922F933F934F935F9349
:1037E0006F937F938F939F93AF93BF93EF93FF93C9
:1037F00048EA50E064EA70E083E090E00E94B00B99
:10380000FF91EF91BF91AF919F918F917F916F91B8
:103810005F914F913F912F910F900BBE0F900FBE74
:103820000F901F9018951F920F920FB60F921124B0
:103830000BB60F922F933F934F935F936F937F93AA
:103840008F939F93AF93BF93EF93FF9348E950E01B
:1038500064E970E082E090E00E94B00BFF91EF918C
:10386000BF91AF919F918F917F916F915F914F9198
:103870003F912F910F900BBE0F900FBE0F901F9096
:1038800018951F920F920FB60F9211240BB60F923C
:103890002F933F934F935F936F937F938F939F9358
:1038A000AF93BF93EF93FF9348E850E064E870E074
:1038B00081E090E00E94B00BFF91EF91BF91AF913A
:1038C0009F918F917F916F915F914F913F912F9138
:1038D0000F900BBE0F900FBE0F901F9018950F9377
:1038E0001F93CF93DF93EC01162F042F1B821A82B4
:1038F00088EE93E0A0E0B0E08C839D83AE83BF832D
:1039000083E192E0998388831F8A1E8A198E188E1C
:103910001B8E1A8E1D8E1C8E6E8D6E7F6D7F6E8F30
:103920006695617081E06827842F0E94340561E00C
:10393000802F0E946205802F90E0FC01EE59FC4F21
:10394000E491E88BFC01E45EFC4FE491F0E0EE0FC3
:10395000FF1FEE5FFC4F859194919A8B898B60E0FD
:10396000812F0E9462058E8D81FD04C061E0812F50
:103970000E9434051C87812F90E0FC01EE59FC4F1A
:10398000E491ED87FC01E45EFC4FE491F0E0EE0F82
:10399000FF1FE851FD4F859194919F878E87DF919E
:1039A000CF911F910F91089510928905109288056B
:1039B00088EE93E0A0E0B0E080938A0590938B05B9
:1039C000A0938C05B0938D0525E232E030938705F6
:1039D0002093860545E351E050939305409392056B
:1039E00044E351E0509395054093940540E351E042
:1039F000509397054093960541E351E05093990504
:103A00004093980542E351E050939B0540939A05FB
:103A100046E351E050939D0540939C0510929F050D
:103A20001092A0051092A1051092A20510922606F0
:103A3000109225068093270690932806A0932906C6
:103A4000B0932A06309324062093230645ED50E0D8
:103A50005093300640932F0644ED50E050933206C9
:103A60004093310640ED50E05093340640933306C6
:103A700041ED50E0509336064093350642ED50E05C
:103A8000509338064093370646ED50E050933A067F
:103A90004093390610923C0610923D0610923E0665
:103AA00010923F061092C3061092C2068093C4067D
:103AB0009093C506A093C606B093C7063093C1067F
:103AC0002093C0064DEC50E05093CD064093CC06B9
:103AD0004CEC50E05093CF064093CE0648EC50E0BB
:103AE0005093D1064093D00649EC50E05093D30652
:103AF0004093D2064AEC50E05093D5064093D4064A
:103B00004EEC50E05093D7064093D6061092D9065B
:103B10001092DA061092DB061092DC061092600713
:103B200010925F078093610790936207A0936307E9
:103B3000B093640730935E0720935D0725EC30E077
:103B400030936A072093690724EC30E030936C07C8
:103B500020936B0720EC30E030936E0720936D07C5
:103B600021EC30E03093700720936F0722EC30E0B7
:103B7000309372072093710726EC30E0309374077E
:103B800020937307109276071092770710927807A8
:103B9000109279072AEF37E010923B0810923A080A
:103BA00030933E0820933D0840E450E05093400895
:103BB00040933F0810924108109242081092440826
:103BC0001092430810924508109247081092460838
:103BD000109249081092480810924B0810924A0817
:103BE00010924D0810924C0810924F0810924E08F7
:103BF00010925108109250081092530810925208D7
:103C0000109259081092580810925B0810925A08A6
:103C100010925D0810925C0810925F0810925E0886
:103C200010926D0810926C0810923C0810927A085D
:103C300010927C0810927B0810924F0948E052E0E5
:103C4000509361084093600842E152E0509363084A
:103C5000409362084CE152E0509365084093640839
:103C600046E252E0509367084093660840E352E012
:103C700050936908409368084AE352E050936B08F8
:103C800040936A0844E452E050936F0840936E08F2
:103C900045E452E0509371084093700840E259E0C7
:103CA000509373084093720830935508209354083A
:103CB0004EE353E0509375084093740830935708CF
:103CC0002093560820E532E0309377082093760859
:103CD00010925309109252098093540990935509F8
:103CE000A0935609B093570987E392E09093510946
:103CF0008093500989E492E090937E0A80937D0A34
:103D00001092A10A1092A00A1092A30A1092A20A7D
:103D10001092A50A1092A40A1092A70A1092A60A5D
:103D20008FEF80939F0AEDEEF9E02FEF48EB5BE019
:103D30008091EC098033B8F491E0980F9093EC09EE
:103D4000808390E0DC01AA0FBB1FA80FB91FA45A03
:103D5000B64F12965C934E93119733968AE0ED37E7
:103D6000F80731F708952083F8CF789484B58260FE
:103D700084BD84B5816084BD85B5826085BD85B50F
:103D8000816085BD80916E00816080936E0010928D
:103D90008100809181008260809381008091810008
:103DA0008160809381008091800081608093800099
:103DB0008091B10084608093B1008091B0008160F7
:103DC0008093B000809191008260809391008091F7
:103DD0009100816080939100809190008160809338
:103DE00090008091A10082608093A1008091A10049
:103DF00081608093A1008091A00081608093A000E9
:103E00008091210182608093210180912101816054
:103E10008093210180912001816080932001809115
:103E20007A00846080937A0080917A008260809327
:103E30007A0080917A00816080937A0080917A0084
:103E4000806880937A001092C10089E180937A089B
:103E500080917B0890917C080E946926C0917A0825
:103E6000D0E0CE0101960E94CD2590937C088093EE
:103E70007B08FC01EC0FFD1F108222E0DC012C937B
:103E800025E011962C93AE01425051096EE473E087
:103E900002960E94F22682E69DE09093EB048093C6
:103EA000EA0487E99CE09093E9048093E8048AE6B9
:103EB0009CE09093E7048093E60485E49FE0909370
:103EC000E5048093E4048AE093E19093E304809313
:103ED000E2048DEE9EE09093E1048093E00489EF8C
:103EE00095E19093ED048093EC048EE694E1909339
:103EF000EF048093EE0481E080934F0940E051EE9F
:103F000060E070E08DE597E00E94B40280914F0977
:103F100081114FC061E08DE00E94620562ED70E0AA
:103F200080E090E00E94E00561E08DE00E943405B1
:103F300068E270E080E090E00E94E00560E08DE0E3
:103F40000E94340562ED70E080E090E00E94E005A0
:103F500061E08DE00E94340568E270E080E090E06E
:103F60000E94E00560E08DE00E9434056AEF70E099
:103F700080E090E00E94E005C5E062ED70E080E046
:103F800090E00E94E00561E08DE00E94340568E267
:103F900070E080E090E00E94E00560E08DE00E942B
:103FA0003405C15051F76DE770E080E090E00E9469
:103FB000E0058DE597E090937908809378089093D9
:103FC0003B0880933A088AE398E00E9414038AEF42
:103FD00097E00E94AC080E946E14D5E0DD24D394D3
:103FE00002E010E0EE24E394F12C8091F9048823A0
:103FF00091F1C090F004C2FCE1C2C0E0C3FE06C073
:1040000083E00E940B05892B09F0C860C4FE06C03E
:1040100084E00E940B05892B09F0C061C5FE06C033
:1040200085E00E940B05892B09F0C062C6FE06C020
:1040300086E00E940B05892B09F0C064C7FE06C00C
:1040400087E00E940B05892B09F0C06840E06C2FC7
:1040500080E00E94020F8091FA04882309F44AC08C
:10406000C090F104CC2DC170C0FE07C088E00E9452
:104070000B05C1E0892B09F4C0E0C1FE06C089E050
:104080000E940B05892B09F0C260C2FE06C08AE0BF
:104090000E940B05892B09F0C460C3FE06C08BE0AB
:1040A0000E940B05892B09F0C860C4FE06C08CE095
:1040B0000E940B05892B09F0C061C5FE06C08DE08A
:1040C0000E940B05892B09F0C062C6FE06C08EE077
:1040D0000E940B05892B09F0C064C7FE06C08FE063
:1040E0000E940B05892B09F0C06840E06C2F81E02D
:1040F0000E94020F8091FB04882309F44AC0C090FB
:10410000F204CC2DC170C0FE07C080E10E940B05F7
:10411000C1E0892B09F4C0E0C1FE06C081E10E9424
:104120000B05892B09F0C260C2FE06C082E10E9425
:104130000B05892B09F0C460C3FE06C083E10E9411
:104140000B05892B09F0C860C4FE06C084E10E94FB
:104150000B05892B09F0C061C5FE06C085E10E94F0
:104160000B05892B09F0C062C6FE06C086E10E94DD
:104170000B05892B09F0C064C7FE06C087E10E94C9
:104180000B05892B09F0C06840E06C2F82E00E948B
:10419000020F8091FC04882309F44AC0C090F30404
:1041A000CC2DC170C0FE07C088E10E940B05C1E0A4
:1041B000892B09F4C0E0C1FE06C089E10E940B050D
:1041C000892B09F0C260C2FE06C08AE10E940B057D
:1041D000892B09F0C460C3FE06C08BE10E940B0569
:1041E000892B09F0C860C4FE06C08CE10E940B0553
:1041F000892B09F0C061C5FE06C08DE10E940B0548
:10420000892B09F0C062C6FE06C08EE10E940B0534
:10421000892B09F0C064C7FE06C08FE10E940B0520
:10422000892B09F0C06840E06C2F83E00E94020FE8
:104230008091FD04882309F44AC0C090F404CC2D79
:10424000C170C0FE07C080E20E940B05C1E0892B4F
:1042500009F4C0E0C1FE06C081E20E940B05892B73
:1042600009F0C260C2FE06C082E20E940B05892BE3
:1042700009F0C460C3FE06C083E20E940B05892BCF
:1042800009F0C860C4FE06C084E20E940B05892BB9
:1042900009F0C061C5FE06C085E20E940B05892BAE
:1042A00009F0C062C6FE06C086E20E940B05892B9B
:1042B00009F0C064C7FE06C087E20E940B05892B87
:1042C00009F0C06840E06C2F84E00E94020F8091EA
:1042D000FE04882309F44AC0C090F504CC2DC170B7
:1042E000C0FE07C088E20E940B05C1E0892B09F4DB
:1042F000C0E0C1FE06C089E20E940B05892B09F0CF
:10430000C260C2FE06C08AE20E940B05892B09F03A
:10431000C460C3FE06C08BE20E940B05892B09F026
:10432000C860C4FE06C08CE20E940B05892B09F010
:10433000C061C5FE06C08DE20E940B05892B09F005
:10434000C062C6FE06C08EE20E940B05892B09F0F2
:10435000C064C7FE06C08FE20E940B05892B09F0DE
:10436000C06840E06C2F85E00E94020F8091FF043E
:10437000882309F44AC0C090F604CC2DC170C0FE59
:1043800007C080E30E940B05C1E0892B09F4C0E05F
:10439000C1FE06C081E30E940B05892B09F0C260B3
:1043A000C2FE06C082E30E940B05892B09F0C4609F
:1043B000C3FE06C083E30E940B05892B09F0C86089
:1043C000C4FE06C084E30E940B05892B09F0C0617E
:1043D000C5FE06C085E30E940B05892B09F0C0626B
:1043E000C6FE06C086E30E940B05892B09F0C06457
:1043F000C7FE06C087E30E940B05892B09F0C06841
:1044000040E06C2F86E00E94020F80910005882317
:1044100009F44AC0C090F704CC2DC170C0FE07C09B
:1044200088E30E940B05C1E0892B09F4C0E0C1FEBE
:1044300006C089E30E940B05892B09F0C260C2FE09
:1044400006C08AE30E940B05892B09F0C460C3FEF5
:1044500006C08BE30E940B05892B09F0C860C4FEDF
:1044600006C08CE30E940B05892B09F0C061C5FED4
:1044700006C08DE30E940B05892B09F0C062C6FEC1
:1044800006C08EE30E940B05892B09F0C064C7FEAD
:1044900006C08FE30E940B05892B09F0C06840E03D
:1044A0006C2F87E00E94020F809101058823D1F1D3
:1044B000C090F804CC2DC170C0FE07C080E40E94FB
:1044C0000B05C1E0892B09F4C0E0C1FE06C081E400
:1044D0000E940B05892B09F0C260C2FE06C082E46F
:1044E0000E940B05892B09F0C460C3FE06C083E45B
:1044F0000E940B05892B09F0C860C4FE06C084E445
:104500000E940B05892B09F0C061C5FE06C085E439
:104510000E940B05892B09F0C06240E06C2F88E0F7
:104520000E94020F8091780890917908DC01ED914A
:10453000FC910084F185E02D1995892B09F4D7C1F0
:104540008091780890917908DC01ED91FC910284CA
:10455000F385E02D19959C018F3F980719F3982F4B
:1045600080914508882309F49BC0973F09F087C0D4
:1045700010924508A0913D08B0913E086C916137BA
:1045800009F440C0693709F064C0E0917208F09105
:104590007308309739F2809146089091470883302C
:1045A0009105A0F430E020E050E040E070E060E0F1
:1045B00080915408909155081995B4CF82E00E94DB
:1045C0000B05892B09F419CDC4E018CDBD016D5F31
:1045D0007F4F03970E949502BC016D5F7F4F80E083
:1045E0000E946502E0913D08F0913E089F012D5F19
:1045F0003F4F428150E0618170E0E0917208F0919C
:104600007308D6CF80916E0890916F08892B09F4BA
:1046100089CFBD016F5F7F4F809146089091470819
:1046200001970E949502BC016F5F7F4F80E00E945E
:10463000650260913D0870913E086F5F7F4FE09189
:104640006E08F0916F0880915A0890915B08199557
:1046500069CFE0917008F0917108309709F462CF4A
:104660009D012F5F3F4F40914608509147084150B0
:10467000510980915C0890915D08199553CF609124
:10468000460870914708822F0E9465028091460873
:10469000909147080196909347088093460842CF2F
:1046A00060914308709144086115710509F4B1C027
:1046B00027FDAFC0615071097093440860934308AF
:1046C000822F0E9465028091430890914408892BB3
:1046D00009F028CF80914108882309F423CF803D39
:1046E00009F483C040F4803949F1803C09F469C081
:1046F0001092410817CF843FE1F1853F09F44DC086
:10470000803EB1F7E0916008F0916108309781F345
:10471000A0913D08B0913E084C9120E8429FC00115
:10472000112411964C91480F592F511D6091420848
:1047300080914808909149081995DACFE091620874
:10474000F09163083097A1F2A0913D08B0913E0826
:104750004C9120E8429FC001112411964C91480FC2
:10476000592F511D6091420880914A0890914B0841
:10477000E3CFE0916808F0916908309709F4B8CF69
:10478000A0913D08B0913E084C9150E011966C917B
:104790008091500890915108CFCFE0916A08F09134
:1047A0006B08309709F4A4CFA0913D08B0913E0862
:1047B0004C9150E011966C91809152089091530861
:1047C000BBCFE0916408F0916508309709F490CF71
:1047D000A0913D08B0913E084C9150E06091420894
:1047E00080914C0890914D08A7CFE0916608F09118
:1047F0006708309709F47CCFA0913D08B0913E083E
:104800004C9150E06091420880914E0890914F0881
:1048100093CF903F30F4822F8F7080934208922F75
:10482000907F903FF1F190F4903CB1F150F49039C9
:1048300009F078CE10934408009343089093410800
:1048400071CE903D49F1903EA9F36CCE993F09F4A9
:1048500042C028F48CE0890F823060F363CE9F3F22
:1048600009F060CE1092440810924308109241085B
:104870001092420890E080E020913F08309140087B
:1048800082179307A8F4E0913D08F0913E08E80FE5
:10489000F91F10820196F0CFF0924408E09243088D
:1048A000CDCFD092450810924708109246083ACED4
:1048B000109245081092470810924608E091760839
:1048C000F091770880915E0890915F08309709F425
:1048D00029CE199527CEE0917408F091750830978C
:1048E00009F420CE8091560890915708F2CF8FB7E7
:1048F000F8948090020590900305A0900405B09074
:1049000005058FBF8091320590913305A091340544
:10491000B0913505409101025091020270E060E0D3
:10492000881A990AAA0ABB0A481559056A057B051F
:1049300008F051C0840F951FA61FB71F8093320542
:1049400090933305A0933405B09335059AEFA92EC3
:1049500097E0B92ECAECC031C8F4F501ED57FF4F0E
:104960008081823099F480913005909131050C2E30
:1049700002C0959587950A94E2F780FF07C08C2FB7
:104980000E949E05BC018C2F0E94FE07CF5F8FEF17
:10499000A81AB80AC031F9F68091000287FD1BC041
:1049A000C0E02C2F30E080910002082E000C990B03
:1049B0008217930784F0D29FF001D39FF00D11244A
:1049C000E85FFA4F618172812481438180810E9476
:1049D000B714CF5FE6CF80919F0A87FD64C0C12CDA
:1049E0008C2D90E020919F0A022E000C330B28178B
:1049F00039070CF458C08358954FDC011296CC91BE
:104A00006C2F8DE79AE00E94FE065C01892B09F469
:104A100048C0C83040F08091060590910705A8165F
:104A2000B90609F03EC0EC2FF0E0EE0FFF1FE9578A
:104A3000F54F60807180D501ED91FC910084F18586
:104A4000E02DC50119954C011816190654F51614D8
:104A5000170424F4681679060CF4430180EF0E94D1
:104A6000580280E60E9458028C2F80640E945802EF
:104A7000D501ED91FC910284F385E02DC5011995D6
:104A8000C82F8F770E9458028C2F881F8827881F75
:104A90000E945802B1E08B1A910851F787EF0E94EB
:104AA0005802C3949DCF0E947F049FCA052E97FB96
:104AB0001EF400940E946D2557FD07D00E948825A2
:104AC00007FC03D04EF40C946D255095409530951D
:104AD00021953F4F4F4F5F4F08959095809570956A
:104AE00061957F4F8F4F9F4F08950E94AA25A59FE4
:104AF000900DB49F900DA49F800D911D11240895D9
:104B0000B7FF0C9475250E947525821B930B0895A1
:104B1000A1E21A2EAA1BBB1BFD010DC0AA1FBB1FC1
:104B2000EE1FFF1FA217B307E407F50720F0A21B33
:104B3000B30BE40BF50B661F771F881F991F1A94A0
:104B400069F760957095809590959B01AC01BD01CA
:104B5000CF010895A29FB001B39FC001A39F700D24
:104B6000811D1124911DB29F700D811D1124911D75
:104B70000895991B79E004C0991F961708F0961BB9
:104B8000881F7A95C9F780950895EE0FFF1F881F3B
:104B90008BBF0790F691E02D19940F931F93CF933D
:104BA000DF938230910510F482E090E0E091AA0A50
:104BB000F091AB0A30E020E0B0E0A0E0309799F44B
:104BC0002115310509F44AC0281B390B2430310561
:104BD000D8F58A819B816115710589F1FB01938369
:104BE0008283FE0111C040815181028113814817E7
:104BF0005907E0F04817590799F4109761F0129699
:104C00000C93129713961C933296CF01DF91CF919C
:104C10001F910F9108950093AA0A1093AB0AF4CF45
:104C20002115310551F04217530738F0A901DB0176
:104C30009A01BD01DF01F801C1CFEF01F9CF9093D7
:104C4000AB0A8093AA0ACDCFFE01E20FF31F819336
:104C500091932250310939832883D7CF2091A80A14
:104C60003091A90A232B41F42091050230910602CC
:104C70003093A90A2093A80A2091030230910402DC
:104C80002115310541F42DB73EB7409107025091EF
:104C90000802241B350BE091A80AF091A90AE2173B
:104CA000F307A0F42E1B3F0B2817390778F0AC014F
:104CB0004E5F5F4F2417350748F04E0F5F1F50932C
:104CC000A90A4093A80A819391939FCFF0E0E0E076
:104CD0009CCFCF93DF930097E9F0FC0132971382CA
:104CE0001282A091AA0AB091AB0AED0130E020E057
:104CF0001097A1F420813181820F931F2091A80A7F
:104D00003091A90A2817390709F061C0F093A90A60
:104D1000E093A80ADF91CF910895EA01CE17DF074B
:104D2000E8F54A815B819E0141155105B1F7E90122
:104D3000FB83EA8349915991C40FD51FEC17FD07F6
:104D400061F4808191810296840F951FE901998316
:104D50008883828193819B838A83F0E0E0E01296CE
:104D60008D919C9113970097B9F52D913C911197D6
:104D7000CD010296820F931F2091A80A3091A90AB3
:104D80002817390739F6309751F51092AB0A10926F
:104D9000AA0AB093A90AA093A80ABCCFD383C2835E
:104DA00040815181840F951FC817D90761F44E5F68
:104DB0005F4F88819981480F591F518340838A81B1
:104DC0009B81938382832115310509F0B0CFF09345
:104DD000AB0AE093AA0A9ECFFD01DC01C0CF13828B
:104DE0001282D7CFFB01DC014150504048F00190C6
:104DF0000D920020C9F701C01D9241505040E0F7CC
:104E00000895F894FFCFFF13000000AC0A80001251
:104E1000100E13110F000000002C064503020B2B8F
:104E20000688069E06130600000000120445038B48
:104E3000035F04BC039A03AE0300000000D30AA67C
:104E40000A020B2B069F0A8C0A7D0A000000003123
:104E5000074F075B103D104D617820736572766FC8
:104E6000732061747461636865640053706563697D
:104E700066792073657269616C20525820616E6496
:104E80002054582070696E7300556E6B6E6F776E8C
:104E90002070696E206D6F6465004932433A20547A
:104EA0006F6F206D616E7920627974657320726511
:104EB000636569766564004932433A20546F6F2018
:104EC00066657720627974657320726563656976BB
:104ED00065640031302D62697420616464726573A9
:104EE00073696E67206E6F7420737570706F727463
:104EF000656400746F6F206D616E792071756572E5
:104F000069657300433A5C55736572735C646F6DD9
:104F1000636C5C446F63756D656E74735C41726441
:104F200075696E6F5C6C69627261726965735C460B
:104F300069726D6174615C6578616D706C65735CDC
:104F40005374616E646172644669726D617461501C
:104F50006C75735C5374616E646172644669726DE2
:0C4F6000617461506C75732E696E6F00F7
:020000040003F7
:10E000000D9489F10D94B2F10D94B2F10D94B2F129
:10E010000D94B2F10D94B2F10D94B2F10D94B2F1F0
:10E020000D94B2F10D94B2F10D94B2F10D94B2F1E0
:10E030000D94B2F10D94B2F10D94B2F10D94B2F1D0
:10E040000D94B2F10D94B2F10D94B2F10D94B2F1C0
:10E050000D94B2F10D94B2F10D94B2F10D94B2F1B0
:10E060000D94B2F10D94B2F10D94B2F10D94B2F1A0
:10E070000D94B2F10D94B2F10D94B2F10D94B2F190
:10E080000D94B2F10D94B2F10D94B2F10D94B2F180
:10E090000D94B2F10D94B2F10D94B2F10D94B2F170
:10E0A0000D94B2F10D94B2F10D94B2F10D94B2F160
:10E0B0000D94B2F10D94B2F10D94B2F10D94B2F150
:10E0C0000D94B2F10D94B2F10D94B2F10D94B2F140
:10E0D0000D94B2F10D94B2F10D94B2F10D94B2F130
:10E0E0000D94B2F141546D656761323536300041AF
:10E0F000726475696E6F206578706C6F72657220DE
:10E1000073746B3530305632206279204D4C530099
:10E11000426F6F746C6F616465723E004875683F52
:10E1200000436F6D70696C6564206F6E203D200048
:10E130004350552054797065202020203D20005FF9
:10E140005F4156525F415243485F5F3D2000415658
:10E1500052204C696243205665723D20004743437C
:10E160002056657273696F6E203D20004350552024
:10E1700049442020202020203D20004C6F7720663D
:10E18000757365202020203D20004869676820665F
:10E190007573652020203D200045787420667573D6
:10E1A00065202020203D20004C6F636B2066757336
:10E1B000652020203D20004D617220203720323024
:10E1C000313300312E362E3800342E332E350056A2
:10E1D00023202020414444522020206F7020636F70
:10E1E00064652020202020696E73747275637469E1
:10E1F0006F6E2061646472202020496E74657272B3
:10E20000757074006E6F20766563746F7200726A49
:10E210006D702020006A6D70200057686174207056
:10E220006F72743A00506F7274206E6F7420737541
:10E2300070706F72746564004D7573742062652030
:10E2400061206C6574746572002000577269747483
:10E25000696E672045450052656164696E672045B7
:10E26000450045452065727220636E743D00504F35
:10E27000525400303D5A65726F2061646472003FF1
:10E280003D43505520737461747300403D454550C3
:10E29000524F4D207465737400423D426C696E6B41
:10E2A000204C454400453D44756D70204545505215
:10E2B0004F4D00463D44756D7020464C415348001B
:10E2C000483D48656C70004C3D4C69737420492F83
:10E2D0004F20506F72747300513D51756974005234
:10E2E0003D44756D702052414D00563D73686F7707
:10E2F00020696E7465727275707420566563746FF0
:10E30000727300593D506F727420626C696E6B00BD
:10E310002A0011241FBECFEFD1E2DEBFCDBF01E046
:10E320000CBF12E0A0E0B2E0EEE1FDEF03E00BBFB6
:10E3300002C007900D92A030B107D9F712E0A0E01B
:10E34000B2E001C01D92AE30B107E1F70F9460F367
:10E350000D948DFE01E20EBF0FEF0DBF11241FBE05
:10E360000D9460F30D9400F020E030E040ED57E0B4
:10E3700005C0FA013197F1F72F5F3F4F2817390792
:10E38000C0F308959C01260F311DC901A0E0B0E043
:10E390002F5F3F4FABBFFC018791882361F08093D3
:10E3A000C6008091C00086FFFCCF8091C0008064D1
:10E3B0008093C000EACF08958DE08093C6008091DD
:10E3C000C00086FFFCCF8091C00080648093C000B5
:10E3D0008AE08093C6008091C00086FFFCCF8091C8
:10E3E000C00080648093C00008950F94C2F10F9420
:10E3F000DCF10895FC019081992359F09093C600B7
:10E400008091C00086FFFCCF8091C0008064809323
:10E41000C0003196992379F70895282F982F929567
:10E420009F70892F805D8A3308F0895F8093C600D2
:10E430008091C00086FFFCCF8091C00080648093F3
:10E44000C000822F8F70982F905D9A3308F0995FEB
:10E450009093C6008091C00086FFFCCF8091C000E1
:10E4600080648093C00008959C01FB01853691056E
:10E470001CF46330710594F0C90164E670E00F94F8
:10E480002EFE605D7F4F6093C6008091C00086FFC6
:10E49000FCCF8091C00080648093C0002B30310598
:10E4A00014F43297B4F0C90164E670E00F942EFEC4
:10E4B0006AE070E00F942EFE605D7F4F6093C600AF
:10E4C0008091C00086FFFCCF8091C0008064809363
:10E4D000C000C9016AE070E00F942EFEC0968093E0
:10E4E000C6008091C00086FFFCCF8091C000806490
:10E4F0008093C00008951F93182F8EE692EE60E07F
:10E500000F94C2F11093C6008091C00086FFFCCF2B
:10E510008091C00080648093C0000F94DCF11F9153
:10E5200008952F923F924F925F926F927F928F92B7
:10E530009F92AF92BF92CF92DF92EF92FF920F9392
:10E540001F93DF93CF93CDB7DEB762970FB6F894E2
:10E55000DEBF0FBECDBF382E622ECA01DB015C01CB
:10E560006D01772420E2222E2E010894411C511CBB
:10E570008BC081E0A81680E0B80681E0C80680E084
:10E58000D80628F0C601AA27BB270F940DF2BB2797
:10E59000AD2D9C2D8B2D0F940DF28A2D0F940DF225
:10E5A0002092C6008091C00086FFFCCF8091C00001
:10E5B00080648093C0009DE29093C6008091C0006B
:10E5C00086FFFCCF8091C00080648093C0002092C1
:10E5D000C6008091C00086FFFCCF8091C00080649F
:10E5E0008093C00019828601750188249924A1E0D6
:10E5F0003A1651F03A1620F0B2E03B1661F409C029
:10E600000BBFF701779007C0C7010F9477FE782EF4
:10E6100002C0F7017080872D0F940DF22092C60082
:10E620008091C00086FFFCCF8091C0008064809301
:10E63000C000872D8052F401EF70F0708F3520F408
:10E64000E40DF51D708204C0E40DF51D8EE280839B
:10E650000894E11CF11C011D111D0894811C911CE2
:10E6600090E18916910409F0C2CF80E190E0A0E02A
:10E67000B0E0A80EB91ECA1EDB1E198AC2010F9493
:10E68000FAF10F94DCF16A94662009F072CF629679
:10E690000FB6F894DEBF0FBECDBFCF91DF911F91B3
:10E6A0000F91FF90EF90DF90CF90BF90AF909F9031
:10E6B0008F907F906F905F904F903F902F90089534
:10E6C0002F923F924F925F926F927F928F929F9282
:10E6D000AF92BF92CF92DF92EF92FF920F931F9370
:10E6E000DF93CF93CDB7DEB7CD53D1400FB6F894BB
:10E6F000DEBF0FBECDBF01E20EBF0FEF0DBF94B75F
:10E70000F894A89514BE80916000886180936000A1
:10E7100010926000789493FF05C0E0910002F091A0
:10E7200001021995279A2F9A8091C00082608093E8
:10E73000C00080E18093C40088E18093C1000000A4
:10E74000EE24FF24870144E0A42EB12CCC24DD2448
:10E7500024C0C5010197F1F70894E11CF11C011DCB
:10E76000111D21E2E2162EE4F20620E0020720E06D
:10E77000120718F031E0C32ED12CC801B70127ECE5
:10E780003BE140E050E00F9441FE611571058105C9
:10E79000910519F485B1805885B98091C00087FD35
:10E7A00003C0C114D104A9F2A6014F5F5F4FC25E3E
:10E7B000DE4F59834883CE51D140C25EDE4F8881FF
:10E7C0009981CE51D140019711F00D9410FEC05D9A
:10E7D000DE4F19821882C053D14060E0C15DDE4F28
:10E7E0001882CF52D14088249924C35DDE4F19820C
:10E7F0001882CD52D140C05EDE4F188219821A8233
:10E800001B82C052D140CE5CDE4F188219821A8220
:10E810001B82C253D140EE24FF2487010BBFF701B6
:10E8200007911691C45CDE4F19830883CC53D14005
:10E830000D940BFEC25EDE4F28813981CE51D1404E
:10E840002130310509F52091C600C25EDE4F1982E4
:10E850001882CE51D14022C02F5F3F4F4F4F5F4FA4
:10E86000213082E138078AE7480780E0580780F0C6
:10E87000C45CDE4FE881F981CC53D140EF5FFF4F9C
:10E8800019F0EE27FF27099420E030E040E050E047
:10E890008091C00087FFE0CF2091C600C35DDE4FAE
:10E8A00048815981CD52D1404F5F5F4FC35DDE4FEC
:10E8B00059834883CD52D140213209F063C64A3092
:10E8C000510508F05FC60894811C911C53E0851621
:10E8D000910409F059C600E010E018C081E280936D
:10E8E000C6008091C00086FFFCCF8091C00080648C
:10E8F0008093C0002F5F3F4F2931310579F70F9486
:10E90000DCF10F5F1F4F0530110519F020E030E0FA
:10E91000E5CF10920A0210920B0210920C02109294
:10E920000D02109206021092070210920802109235
:10E930000902109202021092030210920402109235
:10E9400005028FEE90EE60E00F94F5F180E191EE1C
:10E9500060E00F94C2F18091C00087FFFCCF9091DE
:10E96000C600903608F09F759032B8F09093C600BC
:10E970008091C00086FFFCCF8091C00080648093AE
:10E98000C000A0E2A093C6008091C00086FFFCCF2B
:10E990008091C00080648093C000983409F4D7C18E
:10E9A0009934B8F4923409F459C1933458F490333B
:10E9B00019F1903308F4E3C59F33A1F1903409F0C5
:10E9C000DEC5BDC0953409F470C1963409F0D7C5D1
:10E9D00098C1923509F42BC2933538F49C3409F46C
:10E9E000F5C1913509F0CBC518C2963509F445C279
:10E9F000993509F0C4C567C483E792EE62E00F94CD
:10EA0000F5F110920602109207021092080210927D
:10EA1000090210920A0210920B0210920C0210923C
:10EA20000D0213C18FE792EE62E00F94F5F18FEEC5
:10EA300090EE60E00F94F5F181E291EE60E00F94CA
:10EA4000C2F187EB91EE60E00F94F5F180E391EE77
:10EA500060E00F94C2F184EE90EE60E00F94F5F167
:10EA60008FE391EE60E00F94C2F186E090E061E008
:10EA700070E00F9434F20F94DCF18DE591EE60E0DC
:10EA80000F94C2F189EC91EE60E00F94F5F18EE401
:10EA900091EE60E00F94C2F183EC91EE60E00F9490
:10EAA000F5F18CE691EE60E00F94C2F18EE10F94E7
:10EAB0000DF288E90F940DF281E00F940DF20F949E
:10EAC000DCF18BE791EE60E00F94C2F119E0E0E039
:10EAD000F0E010935700E4918E2F0F940DF20F94F5
:10EAE000DCF18AE891EE60E00F94C2F1E3E0F0E03F
:10EAF00010935700E4918E2F0F940DF20F94DCF1D8
:10EB000089E991EE60E00F94C2F1E2E0F0E0109349
:10EB10005700E4918E2F0F940DF20F94DCF188EAE8
:10EB200091EE60E00F94C2F1E1E0F0E01093570045
:10EB30001491812F0F940DF20F94DCF107CF8BE825
:10EB400092EE62E00F94F5F18BE492EE60E00F94A8
:10EB5000F5F10F94DCF100E010E019C0C8016F2D51
:10EB60000F947FFEFF2031F489E492EE60E00F9471
