:100000000C9462000C948A000C948A000C948B145B
:100010000C948B140C948B140C948A000C948A000E
:100020000C948A000C948A000C948A000C9422167A
:100030000C948A000C948A000C948A000C948A0018
:100040000C9441140C948A000C940F140C94E91332
:100050000C948A000C948A000C948A000C948A00F8
:100060000C9403150C948A00000000002400270063
:100070002A0000000008000201000003040700003D
:1000800000000000000000000000230026002900FE
:1000900000000000250028002B00040404040404D0
:1000A0000404020202020202030303030303010227
:1000B00004081020408001020408102001020408F6
:1000C0001020431711241FBECFEFD8E0DEBFCDBFF5
:1000D00012E0A0E0B1E0E6E4FCE302C005900D927E
:1000E000A036B107D9F725E0A0E6B2E001C01D9225
:1000F000AE3FB207E1F710E0C2E6D0E004C02197BE
:10010000FE010E94E71CC136D107C9F70E94701892
:100110000C94211E0C940000862FE0918703F0912F
:100120008803309711F0BA0109940895862FE09161
:100130008503F0918603309711F0BA010994089570
:10014000862FE0918303F0918403309711F0BA0178
:1001500009940895862FE0918103F09182033097EE
:1001600011F0BA0109940895862FE0917F03F09170
:100170008003309711F0BA0109940895862FE09119
:100180007D03F0917E03309711F0BA010994089530
:100190000895862F642FE0918903F0918A033097A8
:1001A00011F0A90109940895E0918B03F0918C035B
:1001B000309709F009940895A0913205B091330564
:1001C000ED91FC9111970190F081E02D682FCD0108
:1001D00009941F93CF93DF93182FEB018091F904BB
:1001E0009091FA046817790760F48091F704909170
:1001F000F804C80FD91F188380E0DF91CF911F91B9
:100200000895E0912605F0912705309711F481E0DB
:10021000F4CF81E08093F60480911205909113054C
:1002200009958091F9049091FA04C817D90778F7D5
:10023000DCCFCF93DF93EC01FB0130E020E0C9017C
:10024000880F991F8C179D0778F44081DB014D932F
:10025000BD0111979181979599279795942B9C9320
:100260002F5F3F4F3296EBCFC901DF91CF910895B9
:10027000CF92DF92EF92FF92CF93DF93EC016A016E
:100280007B01E889F98982E08083C11481EED80678
:10029000E104F104A1F060E079E08DE390E0A701D2
:1002A00096010E94AA1C2150310941095109569515
:1002B000479537952795211580E1380798F0E8890B
:1002C000F989108260E874E88EE190E0A701960158
:1002D0000E94AA1C215031094109510956954795A0
:1002E00037952795EC85FD853083EE85FF85208346
:1002F000188EEC89FD8986E08083EA89FB898081FC
:1003000080618083EA89FB89808188608083EA89B3
:10031000FB89808180688083EA89FB8980818F7D69
:100320008083DF91CF91FF90EF90DF90CF90089581
:10033000CF93DF93FC01A081B181109701F1EC0113
:10034000ED91FC9111970190F081E02D69EFCD01C5
:10035000099588819981DC01ED91FC910190F081F2
:10036000E02D62E0099588819981DC01ED91FC9195
:100370000190F081E02D65E0DF91CF910994DF914C
:10038000CF910895009721F0805C9F4F0C949801C5
:100390000895AF92BF92CF92DF92EF92FF920F93A8
:1003A0001F93CF93DF936C017B018B01040F151F0B
:1003B000EB015E01AE18BF08C017D10759F0699173
:1003C000D601ED91FC910190F081E02DC6010995D7
:1003D000892B79F7C501DF91CF911F910F91FF9084
:1003E000EF90DF90CF90BF90AF900895FC01538DB8
:1003F000448D252F30E0842F90E0821B930B5417FF
:1004000010F0CF96089501970895FC01918D828D8B
:10041000981761F0A28DAE0FBF2FB11D5D968C9124
:10042000928D9F5F9F73928F90E008958FEF9FEF63
:100430000895FC01918D828D981731F0828DE80F1F
:10044000F11D858D90E008958FEF9FEF0895FC01D9
:10045000918D228D892F90E0805C9F4F821B9109A6
:100460008F739927089587E194E00E94270221E085
:10047000892B09F420E0822F089580E090E0892BF9
:1004800029F00E94330281110C9400000895FC01B0
:10049000A48DA80FB92FB11DA35ABF4F2C91848DE5
:1004A00090E001968F739927848FA689B7892C9342
:1004B000A089B1898C91837080648C93938D848D95
:1004C000981306C00288F389E02D80818F7D808398
:1004D0000895EF92FF920F931F93CF93DF93EC0158
:1004E00081E0888F9B8D8C8D98131AC0E889F989DB
:1004F000808185FF15C09FB7F894EE89FF896083DE
:10050000E889F98980818370806480839FBF81E05E
:1005100090E0DF91CF911F910F91FF90EF900895A0
:10052000F62E0B8D10E00F5F1F4F0F731127E02E7B
:100530008C8D8E110CC00FB607FCFACFE889F989B3
:10054000808185FFF5CFCE010E944702F1CFEB8D70
:10055000EC0FFD2FF11DE35AFF4FF0829FB7F89487
:100560000B8FEA89FB8980818062CFCFCF93DF93A5
:10057000EC01888D8823B9F0AA89BB89E889F989BB
:100580008C9185FD03C0808186FD0DC00FB607FCF0
:10059000F7CF8C9185FFF2CF808185FFEDCFCE0123
:1005A0000E944702E9CFDF91CF91089590E0FC01CE
:1005B000EE58FF4F2491FC01E255FF4F3491FC01AE
:1005C000E656FF4FE491EE23C9F0222339F02330A1
:1005D00001F1A8F4213019F1223029F1F0E0EE0FF9
:1005E000FF1FE057FF4FA591B4918FB7F894EC919E
:1005F000611126C030953E233C938FBF089527306C
:10060000A9F02830C9F0243049F7809180008F7D0F
:1006100003C0809180008F7780938000DFCF84B506
:100620008F7784BDDBCF84B58F7DFBCF8091B00009
:100630008F778093B000D2CF8091B0008F7DF9CFBB
:100640003E2BDACFCF93DF9390E0FC01E255FF4FD2
:10065000249186569F4FFC0184918823C9F090E035
:10066000880F991FFC01E859FF4FA591B491FC0137
:10067000E057FF4FC591D49161110DC09FB7F89419
:100680008C91209582238C938881282328839FBF77
:10069000DF91CF910895623051F49FB7F8943C9167
:1006A000822F809583238C93E8812E2BEFCF8FB7F9
:1006B000F894EC912E2B2C938FBFEACF8E3008F05C
:1006C0008E508770806480937C0080917A00806473
:1006D00080937A0080917A0086FDFCCF809178002B
:1006E0009091790008953FB7F894809179039091A3
:1006F0007A03A0917B03B0917C0326B5A89B05C02B
:100700002F3F19F00196A11DB11D3FBFBA2FA92F90
:10071000982F8827BC01CD01620F711D811D911D8D
:1007200042E0660F771F881F991F4A95D1F70895F9
:100730008F929F92AF92BF92CF92DF92EF92FF92F1
:100740006B017C010E9473034B015C01C114D10455
:10075000E104F104B9F00E947303681979098A0968
:100760009B09683E73408105910580F321E0C21A20
:10077000D108E108F10888EE880E83E0981EA11CDC
:10078000B11CE4CFFF90EF90DF90CF90BF90AF907F
:100790009F908F9008952091970330919803281788
:1007A000390771F49091770380917603981741F09F
:1007B000E0917703F0E0EA5CFC4F808190E00895DF
:1007C0008FEF9FEF08950895EF92FF920F931F937D
:1007D000CF93DF93DC015C96ED90FC905D97E11484
:1007E000F10479F481E090E013969C938E93129734
:1007F00090E080E0DF91CF911F910F91FF90EF90FB
:1008000008955196ED91FC91529750968C91509786
:10081000982F90950FB75E962C915E97122F1270BD
:1008200021FD6095F8942081112319F1282B208354
:10083000E7012197F1F728E0462F50E0308160FF73
:100840001AC0382B3083E7012197F1F7BA0175956B
:100850006795215089F7112381F080818923808356
:100860000FBF5C968D919C910197F1F781E090E02C
:10087000C1CF2923DCCF3923E5CF9081892BEFCF5E
:1008800020919703309198032817390761F48091DC
:1008900076032091770390E0805C9F4F821B910943
:1008A0008F739927089590E080E008952091970331
:1008B0003091980328173907B9F490917703809104
:1008C0007603981789F0E0917703F0E0EA5CFC4F3B
:1008D00080812091770330E02F5F3F4F2F733327C4
:1008E0002093770390E008958FEF9FEF0895E091B4
:1008F0009703F0919803E817F90769F4A389B4897D
:100900009C918589809589238C93109298031092ED
:10091000970381E0089580E00895CF93DF93EC0181
:100920008A8D9B8D892B01F180919703909198037B
:100930008C179D07C9F0009711F00E9477048E8DE7
:100940008E7F8E8F1092760310927703D093980348
:10095000C0939703EB89FC8980819D89892B8083D3
:1009600081E0DF91CF91089580E0FBCFFC016930F9
:1009700081F028F4683051F090E080E008956A300A
:1009800059F06B30C9F781A592A5089583A194A170
:10099000089585A196A1089587A190A50895089529
:1009A0004A30510559F4E62FF0E0E95CFA4F8081B6
:1009B0008F3711F08AE0808381E0089580E0089508
:1009C0005F926F927F928F929F92AF92BF92CF92DF
:1009D000DF92EF92FF920F931F93CF93DF935C010F
:1009E0006901DA015C90232B19F4CC24CA94DC2C25
:1009F0008A013A01660E771ED0E0C0E0F12CE12CAE
:100A000087E0882E912CF50180819181D8016C912D
:100A10000C2E01C0660F0A94EAF765296F77DC0196
:100A2000ED91FC910190F081E02D0995BFEFEB1A5B
:100A3000FB0AF801608170E0C4018C1B9D0B02C0B1
:100A4000759567958A95E2F7562E2196C730D105A0
:100A500058F1CE14DF0441F1D5018D919C91652DA3
:100A60006F77DC01ED91FC910190F081E02D09950B
:100A7000BFEFEB1AFB0A551C5524551C2797E6CFF0
:100A8000EC14FD0408F4BFCFDF91CF911F910F91BB
:100A9000FF90EF90DF90CF90BF90AF909F908F909E
:100AA0007F906F905F9008950F5F1F4F60167106E3
:100AB00039F7209749F3EC14FD0430F7F5018081F4
:100AC000918161E070E001C0660FCA95EAF761505C
:100AD0006521DC01ED91FC910190F081E02DDF9129
:100AE000CF911F910F91FF90EF90DF90CF90BF902B
:100AF000AF909F908F907F906F905F9009941F931D
:100B0000CF93DF9300D0CDB7DEB7182F7A836983F8
:100B10008091F4049091F5040097C9F0DC01ED9107
:100B2000FC910190F081E02D1031B8F46115704412
:100B3000A0F4612F606E099522E030E0AE014F5FB6
:100B40005F4F62E070E084EF94E00E94E0040F9059
:100B50000F90DF91CF911F91089560EF09958091DB
:100B6000F4049091F504DC01ED91FC910190F08189
:100B7000E02D6FE609958091F4049091F504DC0175
:100B8000ED91FC910190F081E02D612F099522E01B
:100B900030E0AE014F5F5F4F62E070E084EF94E0C1
:100BA0000E94E0048091F4049091F504DC01ED9141
:100BB000FC910190F081E02D67EF0995C8CFEF928D
:100BC000FF920F931F93CF93DF93C82F8091F4046C
:100BD0009091F5040097C9F17A018B01DC01ED9148
:100BE000FC910190F081E02D60EF09958091F40473
:100BF0009091F504DC01ED91FC910190F081E02DE4
:100C00006C2F0995E7010E0D1F1DC017D10759F074
:100C100030E020E0AE0161E070E084EF94E00E94FB
:100C2000E0042196F2CF8091F4049091F504DC0168
:100C3000ED91FC910190F081E02D67EFDF91CF9174
:100C40001F910F91FF90EF900994DF91CF911F9129
:100C50000F91FF90EF900895CF92DF92EF92FF9265
:100C60000F931F93CF93DF93FC01E058FF4FE08079
:100C7000EE2009F45CC0EC01C05CDF4FA881B981B3
:100C8000109709F454C0FC01EF57FF4FC080D1808A
:100C9000F60111810081ED91FC9111970190F08195
:100CA000E02D60EFCD01099588819981DC01ED91FE
:100CB000FC910190F081E02D69E709958881998187
:100CC000DC01ED91FC910190F081E02D602F099500
:100CD00088819981DC01ED91FC910190F081E02DFA
:100CE000612F0995F12C01E010E00F5F1F4FE01616
:100CF000F10659F030E020E0A601400F511F61E0FD
:100D000070E0CE010E94E004F0CF88819981DC017F
:100D1000ED91FC910190F081E02D67EFDF91CF9193
:100D20001F910F91FF90EF90DF90CF900994DF918A
:100D3000CF911F910F91FF90EF90DF90CF9008958A
:100D4000009711F00C942C06089520911103260FA2
:100D50003327331F21323105ECF42091ED03FC01E0
:100D600090E080E0243069F082E00895A0911103C2
:100D70002191AC0141515D4FA40FB52FB11D2C93B2
:100D80000196861798F380911103680F6093110301
:100D900080E0089581E008951092ED0381E0809352
:100DA000EC031092C70361E082E10E94D60261E089
:100DB00083E10E94D602E9EBF0E080818E7F8083A0
:100DC00080818D7F808388E48093B80085E4809360
:100DD000BC000895CF93DF9391E09093EE028823B7
:100DE000B9F0C091B800D091BA008091BC008A7B64
:100DF0008093BC0060E082E10E94D60260E083E163
:100E00000E94D6020E94CC06D093BA00C093B800CC
:100E1000DF91CF9108958F929F92AF92BF92CF9220
:100E2000DF92EF92FF920F931F93CF93DF93D091B6
:100E30001604D13208F0D7C0182FC09115040E94B3
:100E400073036B017C018091ED0381116BC082E023
:100E50008093ED031093EC038FEF8093EB031092DC
:100E6000EA03D093E903A5EFB3E0E9ECF3E080E017
:100E7000D81391C01092C8038091C803CC0FC82B1F
:100E8000C093C8038091C703813009F088C01092D5
:100E9000C7030E9473036B017C018091C803809398
:100EA000BB008091EF039091F003A091F103B0910A
:100EB000F203892B8A2B8B2BA1F00E9473030091E4
:100EC000EF031091F0032091F1033091F2036C19BC
:100ED0007D098E099F09061717072807390708F4A7
:100EE00042C08091BC0083FDD8CF85EC8093BC00CC
:100EF0000E9473036B017C018091ED03823009F441
:100F000050C08091EB038F3F09F46FC08091EB03D9
:100F1000803209F46CC08091EB03803309F469C01E
:100F200084E026C08091EF039091F003A091F1033B
:100F3000B091F203892B8A2B8B2B09F484CF0E946A
:100F400073038090EF039090F003A090F103B090B2
:100F5000F2036C197D098E099F0986169706A8066B
:100F6000B90608F070CF8091EE030E94EA0685E092
:100F70001092F403109216041092F303DF91CF91B4
:100F80001F910F91FF90EF90DF90CF90BF90AF90A7
:100F90009F908F9008959D9191938F5F69CF85EE7B
:100FA000A5CF8091EF039091F003A091F103B09150
:100FB000F203892B8A2B8B2B09F49ECF0E9473039B
:100FC0000091EF031091F0032091F1033091F203AF
:100FD0006C197D098E099F0906171707280739071D
:100FE00008F08ACFC0CF81E0C3CF80E0C1CF82E0DC
:100FF000BFCF83E0BDCF08950895E091ED028091C9
:10100000EC02E81730F4F0E0E453FD4F808190E00B
:1010100008958FEF9FEF08959091ED028091EC027B
:101020002FEF3FEF981748F4E92FF0E0E453FD4F1E
:10103000208130E09F5F9093ED02C9010895809177
:10104000EC029091ED02891B990B0895CF92DF92EB
:10105000EF92FF920F931F93CF93DF937C01CB010D
:101060008A012091F303222389F0EB016B01C40E66
:10107000D51ECC15DD0569F06991D701ED91FC9184
:101080000190F081E02DC7010995F3CF642F0E94F4
:10109000A506C801DF91CF911F910F91FF90EF90AE
:1010A000DF90CF900895CF93DF931F92CDB7DEB737
:1010B00069832091F3032223F9F020911604203252
:1010C00058F021E030E0FC013383228390E080E09F
:1010D0000F90DF91CF9108958091F403E82FF0E015
:1010E000EB50FC4F998190838F5F8093F403809342
:1010F000160481E090E0ECCF61E0CE0101960E9401
:10110000A506F7CF90E080E00895DF92EF92FF927E
:101110000F931F93CF93DF93EC01D62E7A018901B1
:1011200088818C3008F067C061E08D2D0E94220319
:101130008881282F30E0F901EE0FFF1FE20FF31F27
:10114000EA57FA4F9D2D9F736081607C692B608305
:1011500020E232E02E193F0937FF02C02D5F3F4FDA
:101160003595279535952795298320E639E0201B6D
:10117000310B37FF02C02D5F3F4F359527953595D1
:1011800027952A832CE0622F0E94DB1C829FB001EE
:10119000112430E020E0AB01420F531FFA01EE0FA3
:1011A000FF1FE40FF51FEA57FA4F908196FD16C016
:1011B0002F5F3F4F2C30310571F781110FC0109216
:1011C000800082E08093810010928500109284005C
:1011D000B19A80916F00826080936F00E8818E2FBA
:1011E00090E0FC01EE0FFF1FE80FF91FEA57FA4FDE
:1011F0008081806480838881DF91CF911F910F91DE
:10120000FF90EF90DF900895CF938830B0F421E005
:1012100030E0082E02C0220F331F0A94E2F74091FB
:10122000C1035091C203672B51F4209530952423BC
:1012300035233093C2032093C103CF910895242B0B
:10124000352B3093C2032093C1039091CA029111B0
:10125000F4CFC82F0E945E03BC018C2FCF910C9459
:101260007F055F926F927F928F929F92AF92BF9213
:10127000CF92DF92EF92FF920F931F93CF93DF9362
:10128000833008F061C0D1E0D80FDD0FDD0FDD0F36
:101290005D2ED73110F046E1542EC62F082FD850BE
:1012A0008D2E912CC401880F991F9C012C543B4F0B
:1012B0005901D12CC12C10E077247394D515C8F5B1
:1012C0008EEF8D0F8231F8F4F601E80DF91DE95C1F
:1012D000FA4F90819230B8F48C2F87216624639462
:1012E000811101C0612C7601EE0CFF1C913089F454
:1012F000172939E9E30EF11CF501EE0DFF1D862DCE
:1013000090E091838083770CDF5F8FEFC81AD80A53
:10131000D5CF882371F3F701E756FF4FEA0DFB1D88
:1013200080819181019729F362E08D2F0E94220331
:10133000E0CF011119C0F8948BB16C2F68276C7F36
:10134000612368276BB97894DF91CF911F910F913A
:10135000FF90EF90DF90CF90BF90AF909F908F90D5
:101360007F906F905F9008950130D1F4C123F8947D
:1013700095B1812F8F73809589239C2F9F73892B23
:1013800085B988B1612F62956695669563706095A1
:101390006823C295C695C695C370C62BC8B9D3CF6E
:1013A0001F70F89498B1812F880F880F809589233A
:1013B000C123CC0FCC0FC82BF1CF8F929F92AF924D
:1013C000BF92CF92DF92EF92FF920F931F93CF9332
:1013D000DF93EB01863108F098C0082F10E0F80188
:1013E000E95CFA4F9081933009F49CC0943009F085
:1013F0008CC08250823108F081C0F801E055FD4F69
:10140000C080D12C7601EE0CFF1C4B01603282E0D3
:1014100078070CF03EC0F701EC0DFD1DE555FA4FC5
:101420008181A8E88A2E912C881A910887FD9394CF
:10143000880C991C880C991C092C000CAA08BB0864
:10144000828128E532E0281B310987FD3395220F80
:10145000331F220F331F032E000C440B550B28198A
:1014600039094A095B09DB01653B710514F0A4EBFE
:10147000B0E0B7FF02C0B0E0A0E00E94A21C24EBE5
:1014800030E040E050E00E94781C820E931EA41EC3
:10149000B51EF701EC0DFD1DE555FA4F20812C30EE
:1014A00068F5318188E890E0831B910937FD9395B9
:1014B000880F991F880F991F881699067CF0328132
:1014C00088E592E0831B910937FD9395880F991F5A
:1014D000880F991F881699060CF4C4010297880F8B
:1014E000991F4FB7F89430E0F901EE0FFF1FE20F9C
:1014F000F31FEA57FA4F928381834FBF000F111FEA
:10150000F801E35BFA4FD183C083DF91CF911F9144
:101510000F91FF90EF90DF90CF90BF90AF909F9092
:101520008F9008957B01D82F833041F08BEF800F8F
:10153000823020F087EF800F833058F461E08D2FE8
:101540000E942203E114F10461F460E08D2F0E94F7
:10155000D602000F111FF801E35BFA4FF182E0821F
:10156000D4CF8FEFE816F10411F461E0EFCFF8016A
:10157000EE58FF4FE491E33021F148F4E130B9F047
:10158000E230D1F080E8E816F1047CF7DECFE730F6
:1015900011F1E83041F1E430A9F7809180008062D8
:1015A00080938000F0928B00E0928A00D2CF84B5C5
:1015B000806884BDE7BCCDCF84B5806284BDE8BCC3
:1015C000C8CF80918000806880938000F09289006D
:1015D000E0928800BECF8091B00080688093B00018
:1015E000E092B300B6CF8091B00080628093B000EB
:1015F000E092B400AECF9EEF980F923180F4E82FC6
:10160000F0E0DF01A95CBA4F9C91913041F4EE0FFC
:10161000FF1FE35BFA4F608371830C94D602089539
:10162000FF920F931F93CF93DF9300D0CDB7DEB718
:10163000082F10E0F801E357FC4F9081F62EF922B5
:101640000A531D4F411104C0F80190819F1511F1FB
:101650002F2D30E03A832983A091F404B091F50452
:101660001097B1F0682F6F706069ED91FC91119740
:101670000190F081E02DCD01099522E030E0AE012E
:101680004F5F5F4F62E070E084EF94E00E94E004FF
:10169000F801F0820F900F90DF91CF911F910F9181
:1016A000FF900895833040F5282F30E0F901E0578E
:1016B000FC4F6083672B01F123573C4FF901608198
:1016C000811106C099B19C7F692341E00C94100BF5
:1016D000813049F493B126B19F73F0E42F9F9001BC
:1016E0001124922BF1CF26B130E035952795359511
:1016F00027952F706223E9CF0895A82FB0E0A05559
:10170000BD4F9C91292F30E0F901EE0FFF1FE20F32
:10171000F31FE555FA4FE0812E2F30E0F901EE0F6F
:10172000FF1FE20FF31FEA57FA4F80818F7B808300
:101730008091AE02981308C0992319F091509093AC
:10174000AE028FEF8C9308958823D9F3E091AF0216
:10175000EF5FE093AF02F0E0E15AFD4F9083F1CFED
:10176000FC0101900020E9F73197BF01681B790B5C
:10177000AC0181E70C94DF05CF93DF93DB019091FF
:10178000AE029C3078F53091AF02682F70E0FB011B
:10179000E055FD4F3323E1F0C32FD0E0C15ADD4FB8
:1017A0008881808331503093AF02808123E0829F13
:1017B000C001112485559A4F1A161B0674F414168D
:1017C00015065CF49A01AD01DF91CF910C94850868
:1017D00090839F5F9093AE02E8CF20E639E040E22D
:1017E00052E0F2CF8BE491E0DF91CF910C94B00BFB
:1017F0001F93CF93DF93EC0118E0612FCE010E947D
:10180000B604009711F00E94891D1F5F1C30A9F7D4
:101810008FEF8AA3FE013A96A29611921192CE17EB
:10182000DF07D9F7DF91CF911F9108958F929F9293
:10183000AF92BF92DF92EF92FF920F931F93CF93DD
:10184000DF93EC01D901603609F0A0C08C91282FFC
:101850002F70F22E9BE0921708F498C0807F80339F
:1018600009F490C18D01E42E813338F48031A9F15F
:10187000803209F469C181E08AC0803609F4E0C190
:10188000803709F4ECC18035B1F7622FCE010E9498
:10189000B604EC01009779F3B7E0BF1508F4CAC1AC
:1018A000E881F9810680F781E02D0995EA89FB89B5
:1018B00080818F7E8083EA89FB898081877F808316
:1018C000EA89FB8980818F778083EA89FB8980811F
:1018D0008F7D80838A8D898FCECF12968C901297C0
:1018E000912CB12CA12CE7E0880C991CAA1CBB1CE4
:1018F000EA95D1F713968C9190E0B0E0A0E0FEE07D
:10190000880F991FAA1FBB1FFA95D1F7882999291B
:10191000AA29BB29F80121814C015D01822AF7E047
:10192000FF1560F06F2DCE010E94B604009709F4F8
:10193000A2CFB501A4010E9438019DCF24E0241755
:1019400008F5D8011496EC9014971596DC90BAE03F
:10195000FB1609F4C4C0EBE0FE1609F4D1C0F9E0AF
:10196000FF1221C08DA19EA1892B61F58FE190E02E
:101970000E94ED1C8C014D2D6E2D0E94DE161EA3C3
:101980000DA320C08FE591E00E94B00B80E0DF91B5
:10199000CF911F910F91FF90EF90DF90BF90AF908C
:1019A0009F908F9008958BA19CA1892B59F48FE172
:1019B00090E00E94ED1C8C014D2D6E2D0E94DE16D4
:1019C0001CA30BA36F2DCE010E94B604EC01892B42
:1019D00009F451CFEE2DF0E0E95CFA4F80818F37AA
:1019E00011F08AE08083ED2DF0E0E95CFA4F808110
:1019F0008F3711F08AE080831B8E1A8E198E188E15
:101A00001F8A1E8A60E079E08DE390E0A5019401D1
:101A10000E94781CF901C90103972430310510F4A4
:101A200081E090E09D8F8C8F6C85663108F053C00B
:101A3000C901969587958431910508F472C0439742
:101A40009F8B8E8BC9010597369710F481E090E04B
:101A5000998F888FC901880F991F280F391F3695D4
:101A60002795369527952D30310508F45DC02C500B
:101A700031093B8F2A8F9091680084E0683048F0EC
:101A800021E06E3008F420E081E001C0880F2A9543
:101A9000EAF7892B809368009C852DE630E098302A
:101AA00050F02BE630E09E3030F02CE630E09631FE
:101AB00010F030E020E03C8B2B8B292F30E0983069
:101AC000B0F581E001C0880F9A95EAF78D8B8C8D77
:101AD0009D8D0197F1F7CE010E948D04CCCE8FA190
:101AE00098A5892B09F06ECF8FE190E00E94ED1C44
:101AF0008C014D2D6E2D0E94DE1618A70FA362CF0C
:101B000089A59AA5892B09F05DCF8FE190E00E940D
:101B1000ED1C8C014D2D6E2D0E94DE161AA709A713
:101B200051CF81E090E08CCF21E030E0A2CF9E3019
:101B300040F42850310981E001C0880F2A95EAF766
:101B4000C5CF2E503109F7CF622FCE010E94B604C7
:101B50005C01892B09F48FCEE80111E01E1508F015
:101B60008ACE6A816795662767958981680FD50156
:101B7000ED91FC910190F081E02DC50109951E5F6A
:101B80002296ECCF11968C911197811126C03AA123
:101B900037300CF070CE822F90E00596880F991F99
:101BA000FE01E80FF91F4330A8F013968C911397AC
:101BB00020E8829FC001112412962C91822B9183E0
:101BC000808381E0830F8AA3C80FD11D87FDDA953A
:101BD000FA8251CE11821082F4CF813009F04BCEBF
:101BE0009AA119161CF08FEF8AA345CE80E0492FE9
:101BF000092E000C550B282F30E04217530774F4C0
:101C000080E0E82FF0E04E175F078CF0883020F47A
:101C1000EC0FFD1F238122838F5FF3CF2C0F3D1F1D
:101C2000D90112962C91F21661F38F5FE4CF915097
:101C30009AA321CE0E947704CE010E94891D1BCE5B
:101C4000622FCE010E94B604009709F414CEDC0185
:101C5000ED91FC910680F781E02D09950CCEB7E05F
:101C6000B21708F008CE622FCE010E94B60400978A
:101C700009F032CF00CE85ED8093BC008091EF0358
:101C80009091F003A091F103B091F2030796A11D8A
:101C9000B11D23E0B695A795979587952A95D1F71D
:101CA0002091BC0024FD03C01092ED0308954091E3
:101CB000EF035091F0036091F1037091F203452B13
:101CC000462B472B69F30097A105B10541F02AE2A5
:101CD0002A95F1F700C00197A109B109E1CF8091E0
:101CE000EE030C94EA069F92AF92BF92CF92DF92DE
:101CF000EF92FF920F931F93CF93DF93C82ED12CB7
:101D0000E601CC54DB4FFE01ED57FF4F90819F372A
:101D100009F49FC0963061F49091C902992341F073
:101D20006630710529F01092C9029FEF909300016F
:101D30007B01182F0EEF080F023108F56430710592
:101D4000F1F0F601E055FD4F80818C30C0F490E059
:101D5000FC01EE0FFF1FE80FF91FE555FA4FE08178
:101D60008E2F90E0FC01EE0FFF1FE80FF91FEA57DE
:101D7000FA4F808186FF03C0812F0E947D0B52EFB6
:101D8000952E910E87E0891558F061E070E032E001
:101D9000E316F10411F070E060E0892D0E9404095F
:101DA0000231C8F4E12FE695E695E695F0E0E357B9
:101DB000FC4F2081312F377081E090E001C0880F07
:101DC0003A95EAF7E114F10421F03BE0E316F1045F
:101DD00001F5822B80835601AA0CBB1CF501E35B45
:101DE000FA4F118210828CE0E816F10408F0D3C09B
:101DF000F701E350F14F0C94E71C1D0F4A0F0C0F35
:101E0000610F800FCB0FB70FCB0FCB0FCB0FC30FD3
:101E1000350F80958223DECF37E03915D0F00231BF
:101E200020F460E0812F0E942203CD57DF4F88818C
:101E30008F3779F082E088830CC0023150F460E083
:101E4000812F0E942203CD57DF4F88818F3709F001
:101E50001882DF91CF911F910F91FF90EF90DF904B
:101E6000CF90BF90AF909F900895023190F762E0BD
:101E7000812F0E942203CD57DF4F88818F3711F0C9
:101E80008BE08883F501E35BFA4F81E090E091837A
:101E90008083DFCF0231E8F6FE01ED57FF4F8081EE
:101EA000833021F460E0812F0E94D60261E0812F0F
:101EB0000E942203CD57DF4F88818F3751F281E096
:101EC000BACF133049F08BEF810F823028F087EFC3
:101ED000810F833008F0BDCF61E0812F0E94220383
:101EE00061E0812F0E94220360E0812F0E94D602D0
:101EF000CD57DF4F88818F3709F4ABCF83E09BCF7D
:101F0000023108F0A6CFCD57DF4F88818F3711F00F
:101F100084E08883F601E055FD4F80818F3FA9F072
:101F200090E0FC01EE0FFF1FE80FF91FE555FA4F97
:101F3000E0818E2F90E0FC01EE0FFF1FE80FF91FEC
:101F4000EA57FA4F808186FD84CF4FEF5FEF6FEF46
:101F50007FEF812FDF91CF911F910F91FF90EF9035
:101F6000DF90CF90BF90AF909F900C94BC0B12511C
:101F7000123008F06ECFCD57DF4F88818F3709F4CC
:101F800068CF86E058CFCD57DF4F88818F3709F46F
:101F900060CF8AE050CF8DE791E0DF91CF911F9124
:101FA0000F91FF90EF90DF90CF90BF90AF909F90F8
:101FB0000C94B00B0F931F93CF93DF9381E080932A
:101FC000CA028FEC95E00E94F80B8091C902882329
:101FD00029F01092C9028FEF8093000110929003B4
:101FE00010928D031092C6021092910310928E03EC
:101FF0001092C7021092920310928F031092C8029F
:1020000000EB12E0C0E0DFEF82EF8C0F62E070E0E7
:10201000883030F08EEF8C0F823128F461E070E070
:102020008C2F0E94730EF801D1938F01CF5FC631C0
:1020300059F71092C2031092C1031092AF0210928E
:10204000AE021092CA02DF91CF911F910F910895B5
:102050004F925F926F927F928F929F92AF92BF92B8
:10206000FF920F931F93CF93DF93F82E8B01D42F02
:10207000C22F6F3F760709F490C081E08093F3038D
:10208000F09215041092F403109216048AE795E07A
:102090000E9453088C2F0E940B078091AC029091F4
:1020A000AD028230910538F0880F991F880F991F73
:1020B00005970197F1F70E9473034B015C01809132
:1020C000ED0381116CC0CD2FD13208F0C0E281E068
:1020D0008093ED038093EC039FEF9093EB031092BA
:1020E000EA039C0F9093E9038093C8039091C8037F
:1020F0008F2D880F892B8093C8038091C70381306F
:1021000009F0A1C01092C7030E9473034B015C0148
:102110008091C8038093BB008091EF039091F003FE
:10212000A091F103B091F203892B8A2B8B2BA1F0A4
:102130000E9473034090EF035090F0036090F1030E
:102140007090F203681979098A099B0946165706A7
:102150006806790608F444C08091BC0083FDD8CF9E
:1021600085EC8093BC000E9473034B015C0180915D
:10217000ED03813009F469C08091EA038C1710F4F3
:10218000C091EA03E9ECF3E0ACECB2E080E08C173C
:1021900061F191919D938F5FFACF00E08CCF809198
:1021A000EF039091F003A091F103B091F203892B1A
:1021B0008A2B8B2B09F483CF0E9473034090EF038B
:1021C0005090F0036090F1037090F2036819790960
:1021D0008A099B09461657066806790608F06FCFEC
:1021E0008091EE030E94EA06C0E01092ED02C093D7
:1021F000EC022D2F30E08C2F90E0281739070CF0DF
:1022000046C08EE891E00E94B00BF0926C02009301
:102210006D020CE612E0AD2EB12CC8018C56924036
:102220008A159B050CF041C00F5F1F4F9091EC0287
:102230008091ED029817C9F18AE795E00E940C0899
:10224000F8018183EACF85EE8CCF8091EF039091E6
:10225000F003A091F103B091F203892B8A2B8B2B11
:1022600009F485CF0E9473034090EF035090F00370
:102270006090F1037090F203681979098A099B094B
:10228000461657066806790608F071CFA9CF82175F
:1022900093070CF0BACF8BEA91E00E94B00BD0917B
:1022A000EC028091ED02D81BB0CFDE5F6D2F70E0A5
:1022B0004CE652E087E7DF91CF911F910F91FF909D
:1022C000BF90AF909F908F907F906F905F904F9056
:1022D0000C94DF05EF92FF920F931F93CF93DF9340
:1022E00080568B3108F03CC0EA01162FE82FF0E051
:1022F000E458FE4E0C94E71CDC13B011B011B01181
:10230000B011B011B011B011B011CB13B011321324
:10231000B0118A13B0111013B412B011B011B01172
:10232000B011B0119711B0117812B011FA12998151
:1023300095FF0AC087EC91E0DF91CF911F910F913B
:10234000FF90EF900C94B00B888131E096FB222730
:1023500020F9232798719830D1F148F49923A9F0F6
:10236000DF91CF911F910F91FF90EF9008959031E1
:1023700009F44CC09831A1F72091000112160CF419
:1023800072C08FEF80930001EBCF3093F303809303
:1023900015041092F4031092160402E0011778F469
:1023A000FE01E00FF11D61816795662767958081C9
:1023B000680F8AE795E00E9453080E5FEFCF81E037
:1023C0000E940B0783E191E00197F1F7C9CF9A8151
:1023D0004B816630A1F430E8439FB0011124690FAE
:1023E000711D4D814795442747959C81490FDF9189
:1023F000CF911F910F91FF90EF900C94281047956B
:1024000044274795490F6FEF7FEFF1CFE09100012F
:10241000E7301CF087EE91E08FCF3A819B816630E8
:10242000D9F460E8969FA0011124430F511D9D81AE
:102430009795992797953C81930FEF5FE093000163
:1024400035E0E302F0011124E756FC4F808352830C
:1024500041839383248384CF979599279795930FEE
:102460004FEF5FEFEACF90E0622F022E000C770B68
:1024700035E0492F50E06417750764F0349FF00190
:10248000359FF00D1124E756FC4F4081481719F095
:102490009F5FEFCF90E085E0492F50E0641775070C
:1024A0001CF19830F8F4FA0131968E9FD0018F9F7D
:1024B000B00D1124A756BC4F3C91849FF001859F1D
:1024C000F00D1124E756FC4F308311964D915C912D
:1024D00012975283418313963C911397338314963A
:1024E0003C9134839F5FD8CF21502093000138CF97
:1024F000623078F0898160E8869F9001112488819C
:10250000820F932F911D009721F09093AD0280933D
:10251000AC028091C902811123CFC0E08EEE8C0FF6
:10252000823028F466E070E08C2F0E94730ECF5F3B
:10253000C631A1F781E08093C9021092ED0210929A
:10254000EC021092F403109216040E94CC068BEF5A
:1025500097E09093100380930F038CEF97E0909394
:10256000140380931303FCCE653008F4F9CE188170
:102570008EEF810F823108F0F3CE0981EA80FB8073
:10258000CC81E12FF0E0E055FD4F80818C30C0F42C
:1025900090E0FC01EE0FFF1FE80FF91FE555FA4F21
:1025A000E0818E2F90E0FC01EE0FFF1FE80FF91F76
:1025B000EA57FA4F808186FF03C0812F0E947D0B6E
:1025C00080E8C89FA00111244F0D511D90E8E99E9D
:1025D000B0011124600F711D812F0E94BC0B64E0BB
:1025E00070E0812FDF91CF911F910F91FF90EF90BD
:1025F0000C94730E623008F4B3CE8981E0E88E9FAC
:10260000900111248881820F932F911D009729F04A
:102610009093020180930101A3CE81E090E0F8CF76
:10262000623008F49DCE698170E0123091F08A81A9
:10263000F0E88F9FC0011124682B792B133049F0EB
:102640008B8190E090E4899F902D88271124682B3E
:10265000792B8881DF91CF911F910F91FF90EF909F
:102660000C94DD0980EF0E94DC008CE60E94DC0007
:10267000CEEF84EF8C0F883020F582E00E94DC00E2
:102680008AE00E94DC008DEF8C0F8230E0F089EF51
:102690008C0F8330F0F417C0C23158F780E00E94ED
:1026A000DC0081E00E94DC008BE00E94DC0081E025
:1026B0000E94DC0081E00E94DC0081E00E94DC00DE
:1026C000D8CFC13001F783E00E94DC0088E00E948F
:1026D000DC00C23130F484E00E94DC008EE00E9415
:1026E000DC0080EF8C0F823030F486E00E94DC004A
:1026F00081E00E94DC008FE70E94DC00CF5FC431E4
:1027000059F687EFDF91CF911F910F91FF90EF90D6
:102710000C94DC00662309F423CEC88180EF0E946C
:10272000DC008EE60E94DC008C2F0E94DC00C631AB
:1027300040F7D0E0FE01E95CFA4F80810E94DC00A6
:10274000CC0FDD1F8E01035B1A4FF80180818F775C
:102750000E94DC00F801808191819C012078232B6C
:1027600039F0880F892F881F990B8F770E94DC0022
:10277000C35BDA4F888199819C012227307C232B0F
:1027800009F4BFCF990F880B990F982F881F8F7767
:102790000E94DC00B6CF80EF0E94DC008AE60E9437
:1027A000DC00C2EF8FE7C83008F48C2F0E94DC00F9
:1027B000CF5FC830B9F7A5CF9A01462F60E68FECFE
:1027C00095E0DF91CF911F910F91FF90EF900C94C6
:1027D000160C1F920F920FB60F9211242F933F9356
:1027E0004F935F936F937F938F939F93AF93BF9319
:1027F000EF93FF9387E194E00E944702FF91EF91EE
:10280000BF91AF919F918F917F916F915F914F9108
:102810003F912F910F900FBE0F901F9018951F9210
:102820000F920FB60F9211242F938F939F93EF93D4
:10283000FF93E0912704F09128048081E0912D041A
:10284000F0912E0482FD1BC09081809130048F5F37
:102850008F7320913104821741F0E0913004F0E051
:10286000E95EFB4F958F80933004FF91EF919F912C
:102870008F912F910F900FBE0F901F901895808110
:10288000F4CF1F920F920FB60F9211242F933F9304
:102890008F939F93AF93BF938091930390919403F1
:1028A000A0919503B09196033091780323E0230F14
:1028B0002D3758F50196A11DB11D20937803809303
:1028C000930390939403A0939503B0939603809100
:1028D000790390917A03A0917B03B0917C030196D8
:1028E000A11DB11D8093790390937A03A0937B037C
:1028F000B0937C03BF91AF919F918F913F912F91A6
:102900000F900FBE0F901F90189526E8230F029688
:10291000A11DB11DD2CF1F920F920FB60F9211249D
:102920002F933F934F935F936F937F938F939F93D7
:10293000AF93BF93EF93FF93E0919703F0919803C8
:10294000309749F0A685B7858585968D91FF14C08F
:102950009C918923A1F4FF91EF91BF91AF919F9139
:102960008F917F916F915F914F913F912F910F9038
:102970000FBE0F901F9018959C91892361F7A38932
:10298000B4899C918589809589238C9386899789C0
:102990000197F1F7608D718DA685B785558538E073
:1029A00020E0CB010197F1F7822F90E09595879574
:1029B000282F4C91452309F02068315091F7868DDE
:1029C00081FD20958091760390E001968F73992781
:1029D00030917703381799F0A0917603B0E0AA5CA4
:1029E000BC4F2C9380937603828D938D0197F1F7E2
:1029F000A389B4898C919589892B8C93ACCF868DD2
:102A00008160868FF1CF1F920F920FB60F92112423
:102A10002F933F934F935F936F937F938F939F93E6
:102A2000AF93BF93EF93FF938091B900887F803677
:102A300009F44AC0F0F5883209F4A7C018F58031CE
:102A400009F49BC0B8F4882309F4F9C0883009F46C
:102A500094C0FF91EF91BF91AF919F918F917F9122
:102A60006F915F914F913F912F910F900FBE0F90FB
:102A70001F901895883109F488C0803251F78093EF
:102A8000EB0314C0803409F49DC040F48033B9F3E3
:102A90008833F9F68093EB0385ECB0C0803509F4F8
:102AA00085C0883509F496C0883499F60E943B0E9B
:102AB000D0CF883909F48CC038F5883729F050F424
:102AC000883611F0803729F683E08093ED03109269
:102AD000350357C0883809F47BC0803919F0803835
:102AE00009F0B7CF80913503803208F071C0E091D2
:102AF000350381E08E0F809335038091BB00F0E0B9
:102B0000EB5EFC4F80833DC0803B39F0E0F4803ABF
:102B100009F479C0883A09F09CCF84E08093ED03F2
:102B20001092120310921103E0910F03F091100321
:102B300009958091110381110FC081E080931103E9
:102B40001092EF0209C0803C09F4A6CF883C09F43A
:102B5000A3CF883B09F07DCFE091120381E08E0F77
:102B600080931203F0E0E151FD4F80818093BB0020
:102B7000909112038091110329C08091C803809322
:102B8000BB0085EC8093BC0064CF9091EA038091F8
:102B9000E903981758F5E091EA0381E08E0F8093DE
:102BA000EA03F0E0E753FC4F8081E9CFE091EA03CC
:102BB00081E08E0F8093EA038091BB00F0E0E75341
:102BC000FC4F80839091EA038091E9039817C8F243
:102BD00085E8D8CFE091EA0381E08E0F8093EA0385
:102BE0008091BB00F0E0E753FC4F80838091EC03C1
:102BF00081115CCF81E08093C70384EA8093BC009D
:102C00001092ED0326CF85EC8093BC001092ED036B
:102C100080913503803230F4E0913503F0E0EB5ED3
:102C2000FC4F10826091350370E0E0911303F09146
:102C3000140385E193E00995109235030ACF1092B1
:102C4000EB0334CF1F920F920FB60F9211242F93E4
:102C50003F934F935F936F937F938F939F93AF9324
:102C6000BF93CF93DF93EF93FF938091CB02C091FB
:102C7000AA05D0E087FF24C010928500109284003E
:102C80008091CB028F5F8093CB028091CB02082E84
:102C9000000C990B8C179D0724F48091CB028C308B
:102CA000C4F18091840090918500049680349C4901
:102CB00008F47AC08091840090918500049676C0D3
:102CC0008091CB02082E000C990B8C179D07C4F63F
:102CD000E091CB028E2FEE0F990BFC01EE0FFF1F40
:102CE000E80FF91FEA57FA4F808186FFC9CFE091BC
:102CF000CB028E2FEE0F990BFC01EE0FFF1FE80F9A
:102D0000F91FEA57FA4F808160E08F730E94D60264
:102D1000B7CF2091840030918500E091CB028E2FB7
:102D2000EE0F990BFC01EE0FFF1FE80FF91FEA579A
:102D3000FA4F81819281820F931F90938900809333
:102D40008800E091CB028E2FEE0F990BFC01EE0F65
:102D5000FF1FE80FF91FEA57FA4F808186FF11C065
:102D6000E091CB028E2FEE0F990BFC01EE0FFF1FAF
:102D7000E80FF91FEA57FA4F808161E08F730E94D4
:102D8000D602FF91EF91DF91CF91BF91AF919F91CB
:102D90008F917F916F915F914F913F912F910F9004
:102DA0000FBE0F901F90189580E49CE990938900C6
:102DB000809388008FEF8093CB02E3CF0F931F9314
:102DC000CF93DF93EC01162F042F1B821A8288EE1B
:102DD00093E0A0E0B0E08C839D83AE83BF838DE061
:102DE00091E0998388831F8A1E8A198E188E1B8E04
:102DF0001A8E1D8E1C8E6E8D6E7F6D7F6E8F66950A
:102E0000617081E06827842F0E94D60261E0802FE4
:102E10000E942203802F90E0FC01E255FF4FE491D5
:102E2000E88BFC01E656FF4FE491F0E0EE0FFF1F48
:102E3000E057FF4F859194919A8B898B60E0812FA9
:102E40000E9422038E8D81FD04C061E0812F0E94CB
:102E5000D6021C87812F90E0FC01E255FF4FE491E0
:102E6000ED87FC01E656FF4FE491F0E0EE0FFF1F07
:102E7000EA57FF4F859194919F878E87DF91CF917D
:102E80001F910F91089510921A041092190448EEA0
:102E900053E060E070E040931B0450931C04609387
:102EA0001D0470931E048FE191E0909318048093A9
:102EB000170485EC90E0909324048093230484EC21
:102EC00090E0909326048093250480EC90E090930A
:102ED00028048093270481EC90E090932A04809347
:102EE000290482EC90E090932C0480932B0486ECD0
:102EF00090E090932E0480932D0410923004109251
:102F00003104109232041092330484EB94E0109256
:102F1000F5041092F4049093F8048093F70420E4ED
:102F200030E03093FA042093F9041092FB041092DD
:102F3000FC041092FE041092FD041092FF04109203
:102F400001051092000510920305109202051092DF
:102F500005051092040510920705109206051092BF
:102F600009051092080510920B0510920A0510929F
:102F70000D0510920C051092130510921205109277
:102F8000150510921405109217051092160510924F
:102F90001905109218051092270510922605109217
:102FA000F6041092340510923605109235051092F1
:102FB00079052CE830E030931B0520931A0526E9AB
:102FC00030E030931D0520931C0520EA30E030935B
:102FD0001F0520931E052AEA30E030932105209337
:102FE000200524EB30E030932305209322052EEBBF
:102FF00030E0309325052093240528EC30E0309311
:1030000029052093280529EC30E030932B052093E7
:103010002A0520EA36E030932D0520932C05909365
:103020000F0580930E0522EC31E030932F0520939D
:103030002E05909311058093100584ED90E09093F8
:1030400031058093300510927D0510927C054093E8
:103050007E0550937F05609380057093810581E321
:1030600091E090937B0580937A0583E491E09093BF
:10307000D0058093CF051092F3051092F2051092BF
:10308000F5051092F4051092F7051092F6051092CE
:10309000F9051092F8058FEF8093F105EBEAF5E062
:1030A0002FEF48EB5BE08091AA058C30B8F491E0FB
:1030B000980F9093AA05808390E0DC01AA0FBB1FB4
:1030C000A80FB91FAA57BA4F12965C934E93119747
:1030D000339685E0EF3CF80731F708952083F8CF69
:1030E000789484B5826084BD84B5816084BD85B5E3
:1030F000826085BD85B5816085BD80916E008160EF
:1031000080936E0010928100809181008260809394
:103110008100809181008160809381008091800096
:103120008160809380008091B10084608093B100C1
:103130008091B00081608093B00080917A008460BB
:1031400080937A0080917A00826080937A008091E7
:103150007A00816080937A0080917A008068809301
:103160007A001092C10089E1809334058091350581
:10317000909136050E94891DC0913405D0E0CE01A2
:1031800001960E94ED1C9093360580933505FC0155
:10319000EC0FFD1F108222E0DC012C9325E011963C
:1031A0002C93AE014250510968E472E002960E94ED
:1031B000121E8DED99E0909388038093870381E33D
:1031C00099E0909386038093850384E099E090933F
:1031D00084038093830382E59BE090938203809332
:1031E000810383E79EE09093800380937F038BEFBE
:1031F0009AE090937E0380937D038AE691E1909319
:103200008A03809389038AED9FE090938C038093D7
:103210008B0381E08093790540E051EE60E070E03F
:1032200087E194E00E9438018091790581114FC0B7
:1032300061E08DE00E94220362ED70E080E090E0AA
:103240000E94980361E08DE00E94D60268E270E07F
:1032500080E090E00E94980360E08DE00E94D6023A
:1032600062ED70E080E090E00E94980361E08DE004
:103270000E94D60268E270E080E090E00E9498032D
:1032800060E08DE00E94D6026AEF70E080E090E09E
:103290000E949803C5E062ED70E080E090E00E943B
:1032A000980361E08DE00E94D60268E270E080E061
:1032B00090E00E94980360E08DE00E94D602C15029
:1032C00051F76DE770E080E090E00E94980387E19D
:1032D00094E090933305809332059093F5048093A6
:1032E000F40484EF94E00E94980184EB94E00E943F
:1032F0002C060E94DA0F25E0722E00E010E0662412
:10330000639432E0E32EF12CCC24C394D12C809131
:103310009003882349F069B180918D0368236C7F05
:1033200040E080E00E94100B80919103882379F0A7
:1033300063B186B16F73B0E48B9FC0011124682B19
:1033400080918E03682340E081E00E94100B809101
:103350009203882359F066B180918F038F70669530
:103360006695682340E082E00E94100B8091320550
:1033700090913305DC01ED91FC910084F185E02D05
:103380000995892B09F4CEC18091320590913305BE
:10339000DC01ED91FC910284F385E02D09959C01FF
:1033A0008F3F980719F3982F8091FF04882309F421
:1033B00092C0973F09F07EC01092FF04A091F704DD
:1033C000B091F8046C916137C1F1693709F05CC0C4
:1033D000E0912C05F0912D05309741F28091000588
:1033E000909101058330910560F430E020E050E0D9
:1033F00040E070E060E080910E0590910F05099526
:10340000B5CFBD016D5F7F4F03970E941901BC01CD
:103410006D5F7F4F80E00E94E900E091F704F0913A
:10342000F8049F012D5F3F4F428150E0618170E0C1
:10343000E0912C05F0912D05DECF8091280590912B
:103440002905892B09F492CFBD016F5F7F4F8091D1
:1034500000059091010501970E941901BC016F5F61
:103460007F4F80E00E94E9006091F7047091F804BA
:103470006F5F7F4FE0912805F09129058091140539
:1034800090911505099572CFE0912A05F0912B05D1
:10349000309709F46BCF9D012F5F3F4F409100059E
:1034A00050910105415051098091160590911705E1
:1034B00009955CCF6091000570910105822F0E94F3
:1034C000E900809100059091010501969093010516
:1034D000809300054BCF6091FD047091FE0461154F
:1034E000710509F4B1C027FDAFC061507109709337
:1034F000FE046093FD04822F0E94E9008091FD0488
:103500009091FE04892B09F031CF8091FB04882330
:1035100009F42CCF803D09F483C040F4803949F18F
:10352000803C09F469C01092FB0420CF843FE1F194
:10353000853F09F44DC0803EB1F7E0911A05F09146
:103540001B05309781F3A091F704B091F8044C91DA
:1035500020E8429FC001112411964C91480F592F29
:10356000511D6091FC04809102059091030509951D
:10357000DACFE0911C05F0911D053097A1F2A091E2
:10358000F704B091F8044C9120E8429FC001112447
:1035900011964C91480F592F511D6091FC04809158
:1035A000040590910505E3CFE0912205F0912305F4
:1035B000309709F4B8CFA091F704B091F8044C917A
:1035C00050E011966C9180910A0590910B05CFCF38
:1035D000E0912405F0912505309709F4A4CFA0913E
:1035E000F704B091F8044C9150E011966C918091E1
:1035F0000C0590910D05BBCFE0911E05F0911F05C4
:10360000309709F490CFA091F704B091F8044C9151
:1036100050E06091FC048091060590910705A7CFCA
:10362000E0912005F0912105309709F47CCFA0911D
:10363000F704B091F8044C9150E06091FC04809143
:1036400008059091090593CF903F30F4822F8F7039
:103650008093FC04922F907F903FF1F190F4903C86
:10366000B1F150F4903909F081CEF092FE04E0926D
:10367000FD049093FB047ACE903D49F1903EA9F36E
:1036800075CE993F09F442C028F48CE0890F82304E
:1036900060F36CCE9F3F09F069CE1092FE04109249
:1036A000FD041092FB041092FC0490E080E0209155
:1036B000F9043091FA0482179307A8F4E091F70413
:1036C000F091F804E80FF91F10820196F0CFD09224
:1036D000FE04C092FD04CDCF6092FF04109201055C
:1036E0001092000543CE1092FF0410920105109233
:1036F0000005E0913005F091310580911805909119
:103700001905309709F432CE099530CEE0912E0597
:10371000F0912F05309709F429CE809110059091F2
:103720001105F2CF8FB7F894809093039090940393
:10373000A0909503B09096038FBF8091C3039091A2
:10374000C403A091C503B091C603409101015091FB
:10375000020170E060E0881A990AAA0ABB0A4815BB
:1037600059056A057B0508F051C0840F951FA61FF7
:10377000B71F8093C3039093C403A093C503B09372
:10378000C60394EBA92E94E0B92EC2EFC830C8F45A
:10379000F501ED57FF4F8081823099F48091C1038C
:1037A0009091C2030C2E02C0959587950A94E2F77A
:1037B00080FF07C08C2F0E945E03BC018C2F0E94EB
:1037C0007F05CF5F8FEFA81AB80AC830F9F680914D
:1037D000000187FD1BC0C0E02C2F30E0809100016C
:1037E000082E000C990B8217930784F0729EF0014B
:1037F000739EF00D1124E756FC4F61817281248184
:10380000438180810E942810CF5FE6CF8091F1052F
:1038100087FD62C0412C842D90E02091F105022E9D
:10382000000C330B281739070CF456C081539A4FFC
:10383000DC0112965C90652D8FEC95E00E94B60439
:10384000EC01892B09F446C0B7E0B51538F4809136
:10385000970390919803C817D907E1F5E52DF0E09B
:10386000EE0FFF1FE752FA4F80809180E881F981C7
:103870000084F185E02DCE0109955C01181619062A
:103880004CF51814190424F4881699060CF4540104
:1038900080EF0E94DC0080E60E94DC00852D8064C1
:1038A0000E94DC00E881F9810284F385E02DCE01DD
:1038B0000995982E8F770E94DC00892D881F882714
:1038C000881F0E94DC00E1E0AE1AB10859F787EFCB
:1038D0000E94DC0043949FCF0115110509F417CD18
:1038E0000E943302882309F412CD0E9400000FCDFC
:1038F000052E97FB1EF400940E948F1C57FD07D0E5
:103900000E94AA1C07FC03D04EF40C948F1C509507
:103910004095309521953F4F4F4F5F4F08959095BB
:103920008095709561957F4F8F4F9F4F08950E94AE
:10393000CC1CA59F900DB49F900DA49F800D911D50
:1039400011240895B7FF0C94971C0E94971C821BAA
:10395000930B0895A1E21A2EAA1BBB1BFD010DC0FB
:10396000AA1FBB1FEE1FFF1FA217B307E407F5072F
:1039700020F0A21BB30BE40BF50B661F771F881F0B
:10398000991F1A9469F760957095809590959B01A1
:10399000AC01BD01CF010895A29FB001B39FC0014A
:1039A000A39F700D811D1124911DB29F700D811D6B
:1039B0001124911D0895991B79E004C0991F961751
:1039C00008F0961B881F7A95C9F780950895EE0F29
:1039D000FF1F0590F491E02D09940F931F93CF934F
:1039E000DF938230910510F482E090E0E091FC05D5
:1039F000F091FD0530E020E0B0E0A0E0309799F4D0
:103A00002115310509F44AC0281B390B2430310532
:103A1000D8F58A819B816115710589F1FB0193833A
:103A20008283FE0111C040815181028113814817B8
:103A30005907E0F04817590799F4109761F012966A
:103A40000C93129713961C933296CF01DF91CF916E
:103A50001F910F9108950093FC051093FD05F4CF7D
:103A60002115310551F04217530738F0A901DB0148
:103A70009A01BD01DF01F801C1CFEF01F9CF9093A9
:103A8000FD058093FC05CDCFFE01E20FF31F81936E
:103A900091932250310939832883D7CF2091FA0599
:103AA0003091FB05232B41F4209105013091060153
:103AB0003093FB052093FA05209103013091040116
:103AC0002115310541F42DB73EB7409107015091C2
:103AD0000801241B350BE091FA05F091FB05E21774
:103AE000F307A0F42E1B3F0B2817390778F0AC0121
:103AF0004E5F5F4F2417350748F04E0F5F1F5093FE
:103B0000FB054093FA05819391939FCFF0E0E0E0AD
:103B10009CCFCF93DF930097E9F0FC01329713829B
:103B20001282A091FC05B091FD05ED0130E020E08E
:103B30001097A1F420813181820F931F2091FA0503
:103B40003091FB052817390709F061C0F093FB0598
:103B5000E093FA05DF91CF910895EA01CE17DF07D0
:103B6000E8F54A815B819E0141155105B1F7E901F4
:103B7000FB83EA8349915991C40FD51FEC17FD07C8
:103B800061F4808191810296840F951FE9019983E8
:103B90008883828193819B838A83F0E0E0E01296A0
:103BA0008D919C9113970097B9F52D913C911197A8
:103BB000CD010296820F931F2091FA053091FB05EB
:103BC0002817390739F6309751F51092FD051092F4
:103BD000FC05B093FB05A093FA05BCCFD383C28349
:103BE00040815181840F951FC817D90761F44E5F3A
:103BF0005F4F88819981480F591F518340838A8183
:103C00009B81938382832115310509F0B0CFF09316
:103C1000FD05E093FC059ECFFD01DC01C0CF1382C2
:103C20001282D7CFFB01DC014150504048F0019097
:103C30000D920020C9F701C01D9241505040E0F79D
:063C40000895F894FFCF87
:103C4600FF13000000FE05800000000000E403C929
:103C5600018208E30340045604CB03000000006918
:103C660002C901F601B60227020502190200000088
:103C760000530826088208E3031F080C08FD070006
:103C8600000000CF04D004160CF80B4D61782073A9
:103C96006572766F7320617474616368656400533E
:103CA6007065636966792073657269616C20525824
:103CB60020616E642054582070696E7300556E6BD7
:103CC6006E6F776E2070696E206D6F646500493285
:103CD600433A20546F6F206D616E79206279746566
:103CE60073207265636569766564004932433A20DC
:103CF600546F6F20666577206279746573207265EC
:103D06006365697665640031302D6269742061648B
:103D16006472657373696E67206E6F742073757055
:103D2600706F7274656400746F6F206D616E7920B8
:103D36007175657269657300433A5C557365727394
:103D46005C646F6D636C5C446F63756D656E7473F4
:103D56005C41726475696E6F5C6C696272617269EE
:103D660065735C4669726D6174615C6578616D70DE
:103D76006C65735C5374616E646172644669726DDE
:103D8600617461506C75735C5374616E64617264C6
:103D96004669726D617461506C75732E696E6F0041
:00000001FF
